{
  "_format": "hh-sol-artifact-1",
  "contractName": "SatoshiKNYTReservationClean",
  "sourceName": "contracts/SatoshiKNYTReservationClean.sol",
  "abi": [
    {
      "inputs": [
        {
          "internalType": "string",
          "name": "baseURI",
          "type": "string"
        }
      ],
      "stateMutability": "nonpayable",
      "type": "constructor"
    },
    {
      "inputs": [],
      "name": "ERC721EnumerableForbiddenBatchMint",
      "type": "error"
    },
    {
      "inputs": [
        {
          "internalType": "address",
          "name": "sender",
          "type": "address"
        },
        {
          "internalType": "uint256",
          "name": "tokenId",
          "type": "uint256"
        },
        {
          "internalType": "address",
          "name": "owner",
          "type": "address"
        }
      ],
      "name": "ERC721IncorrectOwner",
      "type": "error"
    },
    {
      "inputs": [
        {
          "internalType": "address",
          "name": "operator",
          "type": "address"
        },
        {
          "internalType": "uint256",
          "name": "tokenId",
          "type": "uint256"
        }
      ],
      "name": "ERC721InsufficientApproval",
      "type": "error"
    },
    {
      "inputs": [
        {
          "internalType": "address",
          "name": "approver",
          "type": "address"
        }
      ],
      "name": "ERC721InvalidApprover",
      "type": "error"
    },
    {
      "inputs": [
        {
          "internalType": "address",
          "name": "operator",
          "type": "address"
        }
      ],
      "name": "ERC721InvalidOperator",
      "type": "error"
    },
    {
      "inputs": [
        {
          "internalType": "address",
          "name": "owner",
          "type": "address"
        }
      ],
      "name": "ERC721InvalidOwner",
      "type": "error"
    },
    {
      "inputs": [
        {
          "internalType": "address",
          "name": "receiver",
          "type": "address"
        }
      ],
      "name": "ERC721InvalidReceiver",
      "type": "error"
    },
    {
      "inputs": [
        {
          "internalType": "address",
          "name": "sender",
          "type": "address"
        }
      ],
      "name": "ERC721InvalidSender",
      "type": "error"
    },
    {
      "inputs": [
        {
          "internalType": "uint256",
          "name": "tokenId",
          "type": "uint256"
        }
      ],
      "name": "ERC721NonexistentToken",
      "type": "error"
    },
    {
      "inputs": [
        {
          "internalType": "address",
          "name": "owner",
          "type": "address"
        },
        {
          "internalType": "uint256",
          "name": "index",
          "type": "uint256"
        }
      ],
      "name": "ERC721OutOfBoundsIndex",
      "type": "error"
    },
    {
      "inputs": [
        {
          "internalType": "address",
          "name": "owner",
          "type": "address"
        }
      ],
      "name": "OwnableInvalidOwner",
      "type": "error"
    },
    {
      "inputs": [
        {
          "internalType": "address",
          "name": "account",
          "type": "address"
        }
      ],
      "name": "OwnableUnauthorizedAccount",
      "type": "error"
    },
    {
      "anonymous": false,
      "inputs": [
        {
          "indexed": true,
          "internalType": "address",
          "name": "owner",
          "type": "address"
        },
        {
          "indexed": true,
          "internalType": "address",
          "name": "approved",
          "type": "address"
        },
        {
          "indexed": true,
          "internalType": "uint256",
          "name": "tokenId",
          "type": "uint256"
        }
      ],
      "name": "Approval",
      "type": "event"
    },
    {
      "anonymous": false,
      "inputs": [
        {
          "indexed": true,
          "internalType": "address",
          "name": "owner",
          "type": "address"
        },
        {
          "indexed": true,
          "internalType": "address",
          "name": "operator",
          "type": "address"
        },
        {
          "indexed": false,
          "internalType": "bool",
          "name": "approved",
          "type": "bool"
        }
      ],
      "name": "ApprovalForAll",
      "type": "event"
    },
    {
      "anonymous": false,
      "inputs": [
        {
          "indexed": true,
          "internalType": "address",
          "name": "previousOwner",
          "type": "address"
        },
        {
          "indexed": true,
          "internalType": "address",
          "name": "newOwner",
          "type": "address"
        }
      ],
      "name": "OwnershipTransferred",
      "type": "event"
    },
    {
      "anonymous": false,
      "inputs": [
        {
          "indexed": true,
          "internalType": "address",
          "name": "referrer",
          "type": "address"
        },
        {
          "indexed": true,
          "internalType": "address",
          "name": "referee",
          "type": "address"
        },
        {
          "indexed": true,
          "internalType": "uint256",
          "name": "tokenId",
          "type": "uint256"
        }
      ],
      "name": "ReferralReward",
      "type": "event"
    },
    {
      "anonymous": false,
      "inputs": [
        {
          "indexed": true,
          "internalType": "address",
          "name": "referrer",
          "type": "address"
        },
        {
          "indexed": true,
          "internalType": "uint256",
          "name": "tokenId",
          "type": "uint256"
        }
      ],
      "name": "ReferralShardMinted",
      "type": "event"
    },
    {
      "anonymous": false,
      "inputs": [
        {
          "indexed": true,
          "internalType": "address",
          "name": "from",
          "type": "address"
        },
        {
          "indexed": true,
          "internalType": "address",
          "name": "to",
          "type": "address"
        },
        {
          "indexed": true,
          "internalType": "uint256",
          "name": "tokenId",
          "type": "uint256"
        }
      ],
      "name": "Transfer",
      "type": "event"
    },
    {
      "inputs": [],
      "name": "COMMUNITY_SHARD_SUPPLY",
      "outputs": [
        {
          "internalType": "uint256",
          "name": "",
          "type": "uint256"
        }
      ],
      "stateMutability": "view",
      "type": "function"
    },
    {
      "inputs": [],
      "name": "MAX_FULL_SUPPLY",
      "outputs": [
        {
          "internalType": "uint256",
          "name": "",
          "type": "uint256"
        }
      ],
      "stateMutability": "view",
      "type": "function"
    },
    {
      "inputs": [],
      "name": "MAX_SHARD_SUPPLY",
      "outputs": [
        {
          "internalType": "uint256",
          "name": "",
          "type": "uint256"
        }
      ],
      "stateMutability": "view",
      "type": "function"
    },
    {
      "inputs": [],
      "name": "REFERRAL_SHARD_SUPPLY",
      "outputs": [
        {
          "internalType": "uint256",
          "name": "",
          "type": "uint256"
        }
      ],
      "stateMutability": "view",
      "type": "function"
    },
    {
      "inputs": [],
      "name": "TOTAL_SHARD_SUPPLY",
      "outputs": [
        {
          "internalType": "uint256",
          "name": "",
          "type": "uint256"
        }
      ],
      "stateMutability": "view",
      "type": "function"
    },
    {
      "inputs": [
        {
          "internalType": "address",
          "name": "to",
          "type": "address"
        },
        {
          "internalType": "uint256",
          "name": "tokenId",
          "type": "uint256"
        }
      ],
      "name": "approve",
      "outputs": [],
      "stateMutability": "nonpayable",
      "type": "function"
    },
    {
      "inputs": [
        {
          "internalType": "address",
          "name": "owner",
          "type": "address"
        }
      ],
      "name": "balanceOf",
      "outputs": [
        {
          "internalType": "uint256",
          "name": "",
          "type": "uint256"
        }
      ],
      "stateMutability": "view",
      "type": "function"
    },
    {
      "inputs": [],
      "name": "canReceiveReferralReward",
      "outputs": [
        {
          "internalType": "bool",
          "name": "",
          "type": "bool"
        }
      ],
      "stateMutability": "view",
      "type": "function"
    },
    {
      "inputs": [],
      "name": "communityShardsMinted",
      "outputs": [
        {
          "internalType": "uint256",
          "name": "",
          "type": "uint256"
        }
      ],
      "stateMutability": "view",
      "type": "function"
    },
    {
      "inputs": [],
      "name": "fullMinted",
      "outputs": [
        {
          "internalType": "uint256",
          "name": "",
          "type": "uint256"
        }
      ],
      "stateMutability": "view",
      "type": "function"
    },
    {
      "inputs": [],
      "name": "fullPrice",
      "outputs": [
        {
          "internalType": "uint256",
          "name": "",
          "type": "uint256"
        }
      ],
      "stateMutability": "view",
      "type": "function"
    },
    {
      "inputs": [
        {
          "internalType": "uint256",
          "name": "tokenId",
          "type": "uint256"
        }
      ],
      "name": "getApproved",
      "outputs": [
        {
          "internalType": "address",
          "name": "",
          "type": "address"
        }
      ],
      "stateMutability": "view",
      "type": "function"
    },
    {
      "inputs": [
        {
          "internalType": "address",
          "name": "user",
          "type": "address"
        }
      ],
      "name": "getReferralStats",
      "outputs": [
        {
          "internalType": "uint256",
          "name": "totalReferrals",
          "type": "uint256"
        },
        {
          "internalType": "address[]",
          "name": "referredAddresses",
          "type": "address[]"
        },
        {
          "internalType": "uint256",
          "name": "availableReferralShards",
          "type": "uint256"
        }
      ],
      "stateMutability": "view",
      "type": "function"
    },
    {
      "inputs": [
        {
          "internalType": "address",
          "name": "referrer",
          "type": "address"
        }
      ],
      "name": "getReferredUsers",
      "outputs": [
        {
          "internalType": "address[]",
          "name": "",
          "type": "address[]"
        }
      ],
      "stateMutability": "view",
      "type": "function"
    },
    {
      "inputs": [],
      "name": "getSupplyInfo",
      "outputs": [
        {
          "internalType": "uint256",
          "name": "maxFullSupply",
          "type": "uint256"
        },
        {
          "internalType": "uint256",
          "name": "maxShardSupply",
          "type": "uint256"
        },
        {
          "internalType": "uint256",
          "name": "referralShardSupply",
          "type": "uint256"
        },
        {
          "internalType": "uint256",
          "name": "communityShardSupply",
          "type": "uint256"
        },
        {
          "internalType": "uint256",
          "name": "currentFullMinted",
          "type": "uint256"
        },
        {
          "internalType": "uint256",
          "name": "currentShardMinted",
          "type": "uint256"
        },
        {
          "internalType": "uint256",
          "name": "currentReferralShardsMinted",
          "type": "uint256"
        },
        {
          "internalType": "uint256",
          "name": "currentCommunityShardsMinted",
          "type": "uint256"
        }
      ],
      "stateMutability": "view",
      "type": "function"
    },
    {
      "inputs": [
        {
          "internalType": "address",
          "name": "owner",
          "type": "address"
        },
        {
          "internalType": "address",
          "name": "operator",
          "type": "address"
        }
      ],
      "name": "isApprovedForAll",
      "outputs": [
        {
          "internalType": "bool",
          "name": "",
          "type": "bool"
        }
      ],
      "stateMutability": "view",
      "type": "function"
    },
    {
      "inputs": [
        {
          "internalType": "uint256",
          "name": "tokenId",
          "type": "uint256"
        }
      ],
      "name": "isCommunityShard",
      "outputs": [
        {
          "internalType": "bool",
          "name": "",
          "type": "bool"
        }
      ],
      "stateMutability": "view",
      "type": "function"
    },
    {
      "inputs": [
        {
          "internalType": "uint256",
          "name": "tokenId",
          "type": "uint256"
        }
      ],
      "name": "isReferralShard",
      "outputs": [
        {
          "internalType": "bool",
          "name": "",
          "type": "bool"
        }
      ],
      "stateMutability": "view",
      "type": "function"
    },
    {
      "inputs": [
        {
          "internalType": "address",
          "name": "to",
          "type": "address"
        }
      ],
      "name": "mintCommunityShard",
      "outputs": [],
      "stateMutability": "nonpayable",
      "type": "function"
    },
    {
      "inputs": [
        {
          "internalType": "uint256",
          "name": "quantity",
          "type": "uint256"
        }
      ],
      "name": "mintFull",
      "outputs": [],
      "stateMutability": "payable",
      "type": "function"
    },
    {
      "inputs": [
        {
          "internalType": "uint256",
          "name": "quantity",
          "type": "uint256"
        },
        {
          "internalType": "address",
          "name": "referrer",
          "type": "address"
        }
      ],
      "name": "mintFullWithReferrer",
      "outputs": [],
      "stateMutability": "payable",
      "type": "function"
    },
    {
      "inputs": [
        {
          "internalType": "address",
          "name": "to",
          "type": "address"
        }
      ],
      "name": "mintReferralShard",
      "outputs": [],
      "stateMutability": "nonpayable",
      "type": "function"
    },
    {
      "inputs": [
        {
          "internalType": "uint256",
          "name": "quantity",
          "type": "uint256"
        }
      ],
      "name": "mintShard",
      "outputs": [],
      "stateMutability": "payable",
      "type": "function"
    },
    {
      "inputs": [],
      "name": "name",
      "outputs": [
        {
          "internalType": "string",
          "name": "",
          "type": "string"
        }
      ],
      "stateMutability": "view",
      "type": "function"
    },
    {
      "inputs": [],
      "name": "openReferralShardsForSale",
      "outputs": [],
      "stateMutability": "nonpayable",
      "type": "function"
    },
    {
      "inputs": [],
      "name": "owner",
      "outputs": [
        {
          "internalType": "address",
          "name": "",
          "type": "address"
        }
      ],
      "stateMutability": "view",
      "type": "function"
    },
    {
      "inputs": [
        {
          "internalType": "uint256",
          "name": "tokenId",
          "type": "uint256"
        }
      ],
      "name": "ownerOf",
      "outputs": [
        {
          "internalType": "address",
          "name": "",
          "type": "address"
        }
      ],
      "stateMutability": "view",
      "type": "function"
    },
    {
      "inputs": [
        {
          "internalType": "uint256",
          "name": "tokenId",
          "type": "uint256"
        }
      ],
      "name": "passType",
      "outputs": [
        {
          "internalType": "enum SatoshiKNYTReservationClean.PassType",
          "name": "",
          "type": "uint8"
        }
      ],
      "stateMutability": "view",
      "type": "function"
    },
    {
      "inputs": [
        {
          "internalType": "address",
          "name": "",
          "type": "address"
        }
      ],
      "name": "referralCount",
      "outputs": [
        {
          "internalType": "uint256",
          "name": "",
          "type": "uint256"
        }
      ],
      "stateMutability": "view",
      "type": "function"
    },
    {
      "inputs": [],
      "name": "referralShardsCanBeSold",
      "outputs": [
        {
          "internalType": "bool",
          "name": "",
          "type": "bool"
        }
      ],
      "stateMutability": "view",
      "type": "function"
    },
    {
      "inputs": [],
      "name": "referralShardsMinted",
      "outputs": [
        {
          "internalType": "uint256",
          "name": "",
          "type": "uint256"
        }
      ],
      "stateMutability": "view",
      "type": "function"
    },
    {
      "inputs": [
        {
          "internalType": "address",
          "name": "",
          "type": "address"
        },
        {
          "internalType": "uint256",
          "name": "",
          "type": "uint256"
        }
      ],
      "name": "referredUsers",
      "outputs": [
        {
          "internalType": "address",
          "name": "",
          "type": "address"
        }
      ],
      "stateMutability": "view",
      "type": "function"
    },
    {
      "inputs": [],
      "name": "renounceOwnership",
      "outputs": [],
      "stateMutability": "nonpayable",
      "type": "function"
    },
    {
      "inputs": [
        {
          "internalType": "address",
          "name": "from",
          "type": "address"
        },
        {
          "internalType": "address",
          "name": "to",
          "type": "address"
        },
        {
          "internalType": "uint256",
          "name": "tokenId",
          "type": "uint256"
        }
      ],
      "name": "safeTransferFrom",
      "outputs": [],
      "stateMutability": "nonpayable",
      "type": "function"
    },
    {
      "inputs": [
        {
          "internalType": "address",
          "name": "from",
          "type": "address"
        },
        {
          "internalType": "address",
          "name": "to",
          "type": "address"
        },
        {
          "internalType": "uint256",
          "name": "tokenId",
          "type": "uint256"
        },
        {
          "internalType": "bytes",
          "name": "data",
          "type": "bytes"
        }
      ],
      "name": "safeTransferFrom",
      "outputs": [],
      "stateMutability": "nonpayable",
      "type": "function"
    },
    {
      "inputs": [],
      "name": "saleIsActive",
      "outputs": [
        {
          "internalType": "bool",
          "name": "",
          "type": "bool"
        }
      ],
      "stateMutability": "view",
      "type": "function"
    },
    {
      "inputs": [
        {
          "internalType": "address",
          "name": "operator",
          "type": "address"
        },
        {
          "internalType": "bool",
          "name": "approved",
          "type": "bool"
        }
      ],
      "name": "setApprovalForAll",
      "outputs": [],
      "stateMutability": "nonpayable",
      "type": "function"
    },
    {
      "inputs": [
        {
          "internalType": "string",
          "name": "baseURI",
          "type": "string"
        }
      ],
      "name": "setBaseURI",
      "outputs": [],
      "stateMutability": "nonpayable",
      "type": "function"
    },
    {
      "inputs": [
        {
          "internalType": "uint256",
          "name": "_fullPrice",
          "type": "uint256"
        },
        {
          "internalType": "uint256",
          "name": "_shardPrice",
          "type": "uint256"
        }
      ],
      "name": "setPrices",
      "outputs": [],
      "stateMutability": "nonpayable",
      "type": "function"
    },
    {
      "inputs": [],
      "name": "shardMinted",
      "outputs": [
        {
          "internalType": "uint256",
          "name": "",
          "type": "uint256"
        }
      ],
      "stateMutability": "view",
      "type": "function"
    },
    {
      "inputs": [],
      "name": "shardPrice",
      "outputs": [
        {
          "internalType": "uint256",
          "name": "",
          "type": "uint256"
        }
      ],
      "stateMutability": "view",
      "type": "function"
    },
    {
      "inputs": [
        {
          "internalType": "bytes4",
          "name": "interfaceId",
          "type": "bytes4"
        }
      ],
      "name": "supportsInterface",
      "outputs": [
        {
          "internalType": "bool",
          "name": "",
          "type": "bool"
        }
      ],
      "stateMutability": "view",
      "type": "function"
    },
    {
      "inputs": [],
      "name": "symbol",
      "outputs": [
        {
          "internalType": "string",
          "name": "",
          "type": "string"
        }
      ],
      "stateMutability": "view",
      "type": "function"
    },
    {
      "inputs": [],
      "name": "toggleSaleState",
      "outputs": [],
      "stateMutability": "nonpayable",
      "type": "function"
    },
    {
      "inputs": [
        {
          "internalType": "uint256",
          "name": "index",
          "type": "uint256"
        }
      ],
      "name": "tokenByIndex",
      "outputs": [
        {
          "internalType": "uint256",
          "name": "",
          "type": "uint256"
        }
      ],
      "stateMutability": "view",
      "type": "function"
    },
    {
      "inputs": [
        {
          "internalType": "address",
          "name": "owner",
          "type": "address"
        },
        {
          "internalType": "uint256",
          "name": "index",
          "type": "uint256"
        }
      ],
      "name": "tokenOfOwnerByIndex",
      "outputs": [
        {
          "internalType": "uint256",
          "name": "",
          "type": "uint256"
        }
      ],
      "stateMutability": "view",
      "type": "function"
    },
    {
      "inputs": [
        {
          "internalType": "uint256",
          "name": "tokenId",
          "type": "uint256"
        }
      ],
      "name": "tokenURI",
      "outputs": [
        {
          "internalType": "string",
          "name": "",
          "type": "string"
        }
      ],
      "stateMutability": "view",
      "type": "function"
    },
    {
      "inputs": [],
      "name": "totalSupply",
      "outputs": [
        {
          "internalType": "uint256",
          "name": "",
          "type": "uint256"
        }
      ],
      "stateMutability": "view",
      "type": "function"
    },
    {
      "inputs": [
        {
          "internalType": "address",
          "name": "from",
          "type": "address"
        },
        {
          "internalType": "address",
          "name": "to",
          "type": "address"
        },
        {
          "internalType": "uint256",
          "name": "tokenId",
          "type": "uint256"
        }
      ],
      "name": "transferFrom",
      "outputs": [],
      "stateMutability": "nonpayable",
      "type": "function"
    },
    {
      "inputs": [
        {
          "internalType": "address",
          "name": "newOwner",
          "type": "address"
        }
      ],
      "name": "transferOwnership",
      "outputs": [],
      "stateMutability": "nonpayable",
      "type": "function"
    },
    {
      "inputs": [],
      "name": "withdraw",
      "outputs": [],
      "stateMutability": "nonpayable",
      "type": "function"
    }
  ],
  "bytecode": "0x60806040526702ea11e32ad50000600b55664a9b6384488000600c55600d805461ffff191690556000600e819055600f81905560108190556011553480156200004757600080fd5b5060405162002afc38038062002afc8339810160408190526200006a916200019c565b336040518060400160405280601a81526020017f32312053617473205265736572766174696f6e20506f7274616c0000000000008152506040518060400160405280600681526020016532315341545360d01b8152508160009081620000d1919062000300565b506001620000e0828262000300565b5050506001600160a01b0381166200011257604051631e4fbdf760e01b81526000600482015260240160405180910390fd5b6200011d8162000134565b5060176200012c828262000300565b5050620003cc565b600a80546001600160a01b038381166001600160a01b0319831681179093556040519116919082907f8be0079c531659141344cd1fd0a4f28419497f9722a3daafe3b4186f6b6457e090600090a35050565b634e487b7160e01b600052604160045260246000fd5b60006020808385031215620001b057600080fd5b82516001600160401b0380821115620001c857600080fd5b818501915085601f830112620001dd57600080fd5b815181811115620001f257620001f262000186565b604051601f8201601f19908116603f011681019083821181831017156200021d576200021d62000186565b8160405282815288868487010111156200023657600080fd5b600093505b828410156200025a57848401860151818501870152928501926200023b565b600086848301015280965050505050505092915050565b600181811c908216806200028657607f821691505b602082108103620002a757634e487b7160e01b600052602260045260246000fd5b50919050565b601f821115620002fb57600081815260208120601f850160051c81016020861015620002d65750805b601f850160051c820191505b81811015620002f757828155600101620002e2565b5050505b505050565b81516001600160401b038111156200031c576200031c62000186565b62000334816200032d845462000271565b84620002ad565b602080601f8311600181146200036c5760008415620003535750858301515b600019600386901b1c1916600185901b178555620002f7565b600085815260208120601f198616915b828110156200039d578886015182559484019460019091019084016200037c565b5085821015620003bc5787850151600019600388901b60f8161c191681555b5050505050600190811b01905550565b61272080620003dc6000396000f3fe6080604052600436106102e45760003560e01c806363e20c5411610190578063c87b56dd116100dc578063eb8d244411610095578063f2fde38b1161006f578063f2fde38b14610890578063f8adb8db146108b0578063f9cc4792146108cf578063ff7c9ac5146108e557600080fd5b8063eb8d24441461084a578063edd634b814610864578063efb46a671461087a57600080fd5b8063c87b56dd14610788578063daaeec86146107a8578063db74559b146107bd578063e01f803b146107ea578063e92820e61461080a578063e985e9c51461082a57600080fd5b8063978b69f411610149578063a22cb46511610123578063a22cb46514610720578063a6b5b10d14610740578063b88d4fde14610753578063c7c709521461077357600080fd5b8063978b69f4146106d3578063998842cf146106e85780639caff9991461070057600080fd5b806363e20c541461063857806370a0823114610658578063715018a6146106785780638d3ac04b1461068d5780638da5cb5b146106a057806395d89b41146106be57600080fd5b806323b872dd1161024f5780633ccfd60b116102085780634f6ccce7116101e25780634f6ccce7146105ab57806355e732da146105cb57806355f804b3146105f85780636352211e1461061857600080fd5b80633ccfd60b1461056357806340f52d091461057857806342842e0e1461058b57600080fd5b806323b872dd146104aa5780632517b8fb146104ca5780632b58b758146104e05780632f745c591461050057806332e5b6d8146105205780633ab53d341461054d57600080fd5b8063081812fc116102a1578063081812fc146103b0578063095ea7b3146103e857806318160ddd146104085780631b9ebc701461031e57806320edeaf31461041d57806321bade131461047b57600080fd5b806301ffc9a7146102e957806302a18c981461031e57806303b81c961461034157806303e4795d1461035757806305fefda71461036e57806306fdde031461038e575b600080fd5b3480156102f557600080fd5b50610309610304366004612065565b6108fb565b60405190151581526020015b60405180910390f35b34801561032a57600080fd5b50610333601581565b604051908152602001610315565b34801561034d57600080fd5b50610333600f5481565b34801561036357600080fd5b5061036c610926565b005b34801561037a57600080fd5b5061036c610389366004612082565b61093f565b34801561039a57600080fd5b506103a3610952565b60405161031591906120f4565b3480156103bc57600080fd5b506103d06103cb366004612107565b6109e4565b6040516001600160a01b039091168152602001610315565b3480156103f457600080fd5b5061036c61040336600461213c565b610a0d565b34801561041457600080fd5b50600854610333565b34801561042957600080fd5b50600e54600f5460105460115460408051601580825261083460208301526012928201929092526060810191909152608081019490945260a084019290925260c083015260e082015261010001610315565b34801561048757600080fd5b5061049b610496366004612166565b610a1c565b604051610315939291906121c5565b3480156104b657600080fd5b5061036c6104c53660046121ee565b610ab0565b3480156104d657600080fd5b5061033360115481565b3480156104ec57600080fd5b5061036c6104fb366004612166565b610b40565b34801561050c57600080fd5b5061033361051b36600461213c565b610c46565b34801561052c57600080fd5b5061054061053b366004612166565b610cab565b604051610315919061222a565b34801561055957600080fd5b50610333600e5481565b34801561056f57600080fd5b5061036c610d21565b61036c610586366004612107565b610d65565b34801561059757600080fd5b5061036c6105a63660046121ee565b610f10565b3480156105b757600080fd5b506103336105c6366004612107565b610f30565b3480156105d757600080fd5b506105eb6105e6366004612107565b610f89565b604051610315919061223d565b34801561060457600080fd5b5061036c610613366004612265565b610fd3565b34801561062457600080fd5b506103d0610633366004612107565b610fe8565b34801561064457600080fd5b50610309610653366004612107565b610ff3565b34801561066457600080fd5b50610333610673366004612166565b61103d565b34801561068457600080fd5b5061036c611085565b61036c61069b3660046122d7565b611099565b3480156106ac57600080fd5b50600a546001600160a01b03166103d0565b3480156106ca57600080fd5b506103a36113b0565b3480156106df57600080fd5b506103336113bf565b3480156106f457600080fd5b50601054601211610309565b34801561070c57600080fd5b5061036c61071b366004612166565b6113db565b34801561072c57600080fd5b5061036c61073b366004612303565b6114a7565b61036c61074e366004612107565b6114b2565b34801561075f57600080fd5b5061036c61076e366004612355565b6114bd565b34801561077f57600080fd5b50610333601281565b34801561079457600080fd5b506103a36107a3366004612107565b6114d5565b3480156107b457600080fd5b5061036c61153d565b3480156107c957600080fd5b506103336107d8366004612166565b60156020526000908152604090205481565b3480156107f657600080fd5b50610309610805366004612107565b611559565b34801561081657600080fd5b506103d061082536600461213c565b6115a3565b34801561083657600080fd5b50610309610845366004612431565b6115db565b34801561085657600080fd5b50600d546103099060ff1681565b34801561087057600080fd5b50610333600b5481565b34801561088657600080fd5b5061033361083481565b34801561089c57600080fd5b5061036c6108ab366004612166565b611609565b3480156108bc57600080fd5b50600d5461030990610100900460ff1681565b3480156108db57600080fd5b5061033360105481565b3480156108f157600080fd5b50610333600c5481565b60006001600160e01b0319821663780e9d6360e01b1480610920575061092082611644565b92915050565b61092e611694565b600d805461ff001916610100179055565b610947611694565b600b91909155600c55565b6060600080546109619061245b565b80601f016020809104026020016040519081016040528092919081815260200182805461098d9061245b565b80156109da5780601f106109af576101008083540402835291602001916109da565b820191906000526020600020905b8154815290600101906020018083116109bd57829003601f168201915b5050505050905090565b60006109ef826116c1565b506000828152600460205260409020546001600160a01b0316610920565b610a188282336116fa565b5050565b6001600160a01b038116600090815260156020908152604080832054601683528184208054835181860281018601909452808452919460609490939290830182828015610a9257602002820191906000526020600020905b81546001600160a01b03168152600190910190602001808311610a74575b505050505091506010546012610aa891906124ab565b929491935050565b6001600160a01b038216610adf57604051633250574960e11b8152600060048201526024015b60405180910390fd5b6000610aec838333611707565b9050836001600160a01b0316816001600160a01b031614610b3a576040516364283d7b60e01b81526001600160a01b0380861660048301526024820184905282166044820152606401610ad6565b50505050565b610b48611694565b601260105410610b9a5760405162461bcd60e51b815260206004820152601d60248201527f4578636565647320726566657272616c20736861726420737570706c790000006044820152606401610ad6565b6000610ba560085490565b610bb09060016124be565b9050600160106000828254610bc591906124be565b9091555050600081815260126020526040902080546001919060ff1916828002179055506000818152601360205260409020805460ff19166001179055610c0c82826117dc565b60405181906001600160a01b038416907fd5f90f9282064b00c7597c500d4493d01d5f8d5057fc37c3c9cf810adac050c090600090a35050565b6000610c518361103d565b8210610c825760405163295f44f760e21b81526001600160a01b038416600482015260248101839052604401610ad6565b506001600160a01b03919091166000908152600660209081526040808320938352929052205490565b6001600160a01b038116600090815260166020908152604091829020805483518184028101840190945280845260609392830182828015610d1557602002820191906000526020600020905b81546001600160a01b03168152600190910190602001808311610cf7575b50505050509050919050565b610d29611694565b600a546040516001600160a01b03909116904780156108fc02916000818181858888f19350505050158015610d62573d6000803e3d6000fd5b50565b600d5460ff16610dac5760405162461bcd60e51b815260206004820152601260248201527153616c65206973206e6f742061637469766560701b6044820152606401610ad6565b60008111610df85760405162461bcd60e51b81526020600482015260196024820152785175616e74697479206d75737420626520706f73697469766560381b6044820152606401610ad6565b61083481600f54610e0991906124be565b1115610e4e5760405162461bcd60e51b81526020600482015260146024820152734578636565647320736861726420737570706c7960601b6044820152606401610ad6565b80600c54610e5c91906124d1565b3414610e9f5760405162461bcd60e51b8152602060048201526012602482015271125b98dbdc9c9958dd08115512081cd95b9d60721b6044820152606401610ad6565b60005b81811015610a18576000610eb560085490565b610ec09060016124be565b90506001600f6000828254610ed591906124be565b90915550506000818152601260205260409020805460ff19166001179055610efd33826117dc565b5080610f08816124e8565b915050610ea2565b610f2b838383604051806020016040528060008152506114bd565b505050565b6000610f3b60085490565b8210610f645760405163295f44f760e21b81526000600482015260248101839052604401610ad6565b60088281548110610f7757610f77612501565b90600052602060002001549050919050565b6000818152600260205260408120546001600160a01b0316610fbd5760405162461bcd60e51b8152600401610ad690612517565b5060009081526012602052604090205460ff1690565b610fdb611694565b6017610f2b82848361258b565b6000610920826116c1565b6000818152600260205260408120546001600160a01b03166110275760405162461bcd60e51b8152600401610ad690612517565b5060009081526014602052604090205460ff1690565b60006001600160a01b038216611069576040516322718ad960e21b815260006004820152602401610ad6565b506001600160a01b031660009081526003602052604090205490565b61108d611694565b61109760006117f6565b565b600d5460ff166110e05760405162461bcd60e51b815260206004820152601260248201527153616c65206973206e6f742061637469766560701b6044820152606401610ad6565b6000821161112c5760405162461bcd60e51b81526020600482015260196024820152785175616e74697479206d75737420626520706f73697469766560381b6044820152606401610ad6565b601582600e5461113c91906124be565b11156111805760405162461bcd60e51b8152602060048201526013602482015272457863656564732066756c6c20737570706c7960681b6044820152606401610ad6565b81600b5461118e91906124d1565b34146111d15760405162461bcd60e51b8152602060048201526012602482015271125b98dbdc9c9958dd08115512081cd95b9d60721b6044820152606401610ad6565b6001600160a01b038116158015906111f257506001600160a01b0381163314155b801561120057506012601054105b1561134257600061121060085490565b61121b9060016124be565b905060016010600082825461123091906124be565b9091555050600081815260126020526040902080546001919060ff1916828002179055506000818152601360205260409020805460ff1916600117905561127782826117dc565b6001600160a01b03821660009081526015602052604081208054600192906112a09084906124be565b90915550506001600160a01b0382166000818152601660209081526040808320805460018101825590845291832090910180546001600160a01b03191633179055518392917fd5f90f9282064b00c7597c500d4493d01d5f8d5057fc37c3c9cf810adac050c091a3604051819033906001600160a01b038516907f53958b9c644a1d5529da7c36929d59417eb9a996f08e02a52632bfe20c92ef4890600090a4505b60005b82811015610f2b57600061135860085490565b6113639060016124be565b90506001600e600082825461137891906124be565b90915550506000818152601260205260409020805460ff1916905561139d33826117dc565b50806113a8816124e8565b915050611345565b6060600180546109619061245b565b60156113ce60126108346124be565b6113d891906124be565b81565b6113e3611694565b6015601154106114355760405162461bcd60e51b815260206004820152601e60248201527f4578636565647320636f6d6d756e69747920736861726420737570706c7900006044820152606401610ad6565b600061144060085490565b61144b9060016124be565b905060016011600082825461146091906124be565b9091555050600081815260126020526040902080546001919060ff1916828002179055506000818152601460205260409020805460ff19166001179055610a1882826117dc565b610a18338383611848565b610d62816000611099565b6114c8848484610ab0565b610b3a33858585856118e7565b60606114e0826116c1565b5060006114eb611a12565b9050600081511161150b5760405180602001604052806000815250611536565b8061151584611a21565b60405160200161152692919061264b565b6040516020818303038152906040525b9392505050565b611545611694565b600d805460ff19811660ff90911615179055565b6000818152600260205260408120546001600160a01b031661158d5760405162461bcd60e51b8152600401610ad690612517565b5060009081526013602052604090205460ff1690565b601660205281600052604060002081815481106115bf57600080fd5b6000918252602090912001546001600160a01b03169150829050565b6001600160a01b03918216600090815260056020908152604080832093909416825291909152205460ff1690565b611611611694565b6001600160a01b03811661163b57604051631e4fbdf760e01b815260006004820152602401610ad6565b610d62816117f6565b60006001600160e01b031982166380ac58cd60e01b148061167557506001600160e01b03198216635b5e139f60e01b145b8061092057506301ffc9a760e01b6001600160e01b0319831614610920565b600a546001600160a01b031633146110975760405163118cdaa760e01b8152336004820152602401610ad6565b6000818152600260205260408120546001600160a01b03168061092057604051637e27328960e01b815260048101849052602401610ad6565b610f2b8383836001611ab4565b600080611715858585611bba565b90506001600160a01b0381166117725761176d84600880546000838152600960205260408120829055600182018355919091527ff3f7a9fe364faab93b216da50a3214154f22a0a2b415b23a84c8169e8b636ee30155565b611795565b846001600160a01b0316816001600160a01b031614611795576117958185611cb3565b6001600160a01b0385166117b1576117ac84611d34565b6117d4565b846001600160a01b0316816001600160a01b0316146117d4576117d48585611de3565b949350505050565b610a18828260405180602001604052806000815250611e33565b600a80546001600160a01b038381166001600160a01b0319831681179093556040519116919082907f8be0079c531659141344cd1fd0a4f28419497f9722a3daafe3b4186f6b6457e090600090a35050565b6001600160a01b03821661187a57604051630b61174360e31b81526001600160a01b0383166004820152602401610ad6565b6001600160a01b03838116600081815260056020908152604080832094871680845294825291829020805460ff191686151590811790915591519182527f17307eab39ab6107e8899845ad3d59bd9653f200f220920489ca2b5937696c31910160405180910390a3505050565b6001600160a01b0383163b15611a0b57604051630a85bd0160e11b81526001600160a01b0384169063150b7a029061192990889088908790879060040161267a565b6020604051808303816000875af1925050508015611964575060408051601f3d908101601f19168201909252611961918101906126b7565b60015b6119cd573d808015611992576040519150601f19603f3d011682016040523d82523d6000602084013e611997565b606091505b5080516000036119c557604051633250574960e11b81526001600160a01b0385166004820152602401610ad6565b805160208201fd5b6001600160e01b03198116630a85bd0160e11b14611a0957604051633250574960e11b81526001600160a01b0385166004820152602401610ad6565b505b5050505050565b6060601780546109619061245b565b60606000611a2e83611e4b565b600101905060008167ffffffffffffffff811115611a4e57611a4e61233f565b6040519080825280601f01601f191660200182016040528015611a78576020820181803683370190505b5090508181016020015b600019016f181899199a1a9b1b9c1cb0b131b232b360811b600a86061a8153600a8504945084611a8257509392505050565b8080611ac857506001600160a01b03821615155b15611b8a576000611ad8846116c1565b90506001600160a01b03831615801590611b045750826001600160a01b0316816001600160a01b031614155b8015611b175750611b1581846115db565b155b15611b405760405163a9fbf51f60e01b81526001600160a01b0384166004820152602401610ad6565b8115611b885783856001600160a01b0316826001600160a01b03167f8c5be1e5ebec7d5bd14f71427d1e84f3dd0314c0f7b2291e5b200ac8c7c3b92560405160405180910390a45b505b5050600090815260046020526040902080546001600160a01b0319166001600160a01b0392909216919091179055565b6000828152600260205260408120546001600160a01b0390811690831615611be757611be7818486611f23565b6001600160a01b03811615611c2557611c04600085600080611ab4565b6001600160a01b038116600090815260036020526040902080546000190190555b6001600160a01b03851615611c54576001600160a01b0385166000908152600360205260409020805460010190555b60008481526002602052604080822080546001600160a01b0319166001600160a01b0389811691821790925591518793918516917fddf252ad1be2c89b69c2b068fc378daa952ba7f163c4a11628f55a4df523b3ef91a4949350505050565b6000611cbe8361103d565b6000838152600760209081526040808320546001600160a01b0388168452600690925290912091925090818314611d1557600083815260208281526040808320548584528184208190558352600790915290208290555b6000938452600760209081526040808620869055938552525081205550565b600854600090611d46906001906124ab565b60008381526009602052604081205460088054939450909284908110611d6e57611d6e612501565b906000526020600020015490508060088381548110611d8f57611d8f612501565b6000918252602080832090910192909255828152600990915260408082208490558582528120556008805480611dc757611dc76126d4565b6001900381819060005260206000200160009055905550505050565b60006001611df08461103d565b611dfa91906124ab565b6001600160a01b039093166000908152600660209081526040808320868452825280832085905593825260079052919091209190915550565b611e3d8383611f87565b610f2b3360008585856118e7565b60008072184f03e93ff9f4daa797ed6e38ed64bf6a1f0160401b8310611e8a5772184f03e93ff9f4daa797ed6e38ed64bf6a1f0160401b830492506040015b6d04ee2d6d415b85acef81000000008310611eb6576d04ee2d6d415b85acef8100000000830492506020015b662386f26fc100008310611ed457662386f26fc10000830492506010015b6305f5e1008310611eec576305f5e100830492506008015b6127108310611f0057612710830492506004015b60648310611f12576064830492506002015b600a83106109205760010192915050565b611f2e838383611fec565b610f2b576001600160a01b038316611f5c57604051637e27328960e01b815260048101829052602401610ad6565b60405163177e802f60e01b81526001600160a01b038316600482015260248101829052604401610ad6565b6001600160a01b038216611fb157604051633250574960e11b815260006004820152602401610ad6565b6000611fbf83836000611707565b90506001600160a01b03811615610f2b576040516339e3563760e11b815260006004820152602401610ad6565b60006001600160a01b038316158015906117d45750826001600160a01b0316846001600160a01b03161480612026575061202684846115db565b806117d45750506000908152600460205260409020546001600160a01b03908116911614919050565b6001600160e01b031981168114610d6257600080fd5b60006020828403121561207757600080fd5b81356115368161204f565b6000806040838503121561209557600080fd5b50508035926020909101359150565b60005b838110156120bf5781810151838201526020016120a7565b50506000910152565b600081518084526120e08160208601602086016120a4565b601f01601f19169290920160200192915050565b60208152600061153660208301846120c8565b60006020828403121561211957600080fd5b5035919050565b80356001600160a01b038116811461213757600080fd5b919050565b6000806040838503121561214f57600080fd5b61215883612120565b946020939093013593505050565b60006020828403121561217857600080fd5b61153682612120565b600081518084526020808501945080840160005b838110156121ba5781516001600160a01b031687529582019590820190600101612195565b509495945050505050565b8381526060602082015260006121de6060830185612181565b9050826040830152949350505050565b60008060006060848603121561220357600080fd5b61220c84612120565b925061221a60208501612120565b9150604084013590509250925092565b6020815260006115366020830184612181565b602081016002831061225f57634e487b7160e01b600052602160045260246000fd5b91905290565b6000806020838503121561227857600080fd5b823567ffffffffffffffff8082111561229057600080fd5b818501915085601f8301126122a457600080fd5b8135818111156122b357600080fd5b8660208285010111156122c557600080fd5b60209290920196919550909350505050565b600080604083850312156122ea57600080fd5b823591506122fa60208401612120565b90509250929050565b6000806040838503121561231657600080fd5b61231f83612120565b91506020830135801515811461233457600080fd5b809150509250929050565b634e487b7160e01b600052604160045260246000fd5b6000806000806080858703121561236b57600080fd5b61237485612120565b935061238260208601612120565b925060408501359150606085013567ffffffffffffffff808211156123a657600080fd5b818701915087601f8301126123ba57600080fd5b8135818111156123cc576123cc61233f565b604051601f8201601f19908116603f011681019083821181831017156123f4576123f461233f565b816040528281528a602084870101111561240d57600080fd5b82602086016020830137600060208483010152809550505050505092959194509250565b6000806040838503121561244457600080fd5b61244d83612120565b91506122fa60208401612120565b600181811c9082168061246f57607f821691505b60208210810361248f57634e487b7160e01b600052602260045260246000fd5b50919050565b634e487b7160e01b600052601160045260246000fd5b8181038181111561092057610920612495565b8082018082111561092057610920612495565b808202811582820484141761092057610920612495565b6000600182016124fa576124fa612495565b5060010190565b634e487b7160e01b600052603260045260246000fd5b602080825260149082015273151bdad95b88191bd95cc81b9bdd08195e1a5cdd60621b604082015260600190565b601f821115610f2b57600081815260208120601f850160051c8101602086101561256c5750805b601f850160051c820191505b81811015611a0957828155600101612578565b67ffffffffffffffff8311156125a3576125a361233f565b6125b7836125b1835461245b565b83612545565b6000601f8411600181146125eb57600085156125d35750838201355b600019600387901b1c1916600186901b178355611a0b565b600083815260209020601f19861690835b8281101561261c57868501358255602094850194600190920191016125fc565b50868210156126395760001960f88860031b161c19848701351681555b505060018560011b0183555050505050565b6000835161265d8184602088016120a4565b8351908301906126718183602088016120a4565b01949350505050565b6001600160a01b03858116825284166020820152604081018390526080606082018190526000906126ad908301846120c8565b9695505050505050565b6000602082840312156126c957600080fd5b81516115368161204f565b634e487b7160e01b600052603160045260246000fdfea2646970667358221220419cdbcd07db124aa478f4025057f4f1002907618ef53d3058f11ca9ccaf93d364736f6c63430008140033",
  "linkReferences": {},
  "deployedLinkReferences": {}
}