{"contracts/SatoshiKNYTReservation.sol":{"SatoshiKNYTReservation":{"abi":[{"inputs":[{"internalType":"uint256","name":"_fullPrice","type":"uint256"},{"internalType":"uint256","name":"_shardPrice","type":"uint256"},{"internalType":"string","name":"baseUri","type":"string"}],"stateMutability":"nonpayable","type":"constructor"},{"inputs":[],"name":"ERC721EnumerableForbiddenBatchMint","type":"error"},{"inputs":[{"internalType":"address","name":"sender","type":"address"},{"internalType":"uint256","name":"tokenId","type":"uint256"},{"internalType":"address","name":"owner","type":"address"}],"name":"ERC721IncorrectOwner","type":"error"},{"inputs":[{"internalType":"address","name":"operator","type":"address"},{"internalType":"uint256","name":"tokenId","type":"uint256"}],"name":"ERC721InsufficientApproval","type":"error"},{"inputs":[{"internalType":"address","name":"approver","type":"address"}],"name":"ERC721InvalidApprover","type":"error"},{"inputs":[{"internalType":"address","name":"operator","type":"address"}],"name":"ERC721InvalidOperator","type":"error"},{"inputs":[{"internalType":"address","name":"owner","type":"address"}],"name":"ERC721InvalidOwner","type":"error"},{"inputs":[{"internalType":"address","name":"receiver","type":"address"}],"name":"ERC721InvalidReceiver","type":"error"},{"inputs":[{"internalType":"address","name":"sender","type":"address"}],"name":"ERC721InvalidSender","type":"error"},{"inputs":[{"internalType":"uint256","name":"tokenId","type":"uint256"}],"name":"ERC721NonexistentToken","type":"error"},{"inputs":[{"internalType":"address","name":"owner","type":"address"},{"internalType":"uint256","name":"index","type":"uint256"}],"name":"ERC721OutOfBoundsIndex","type":"error"},{"inputs":[{"internalType":"address","name":"owner","type":"address"}],"name":"OwnableInvalidOwner","type":"error"},{"inputs":[{"internalType":"address","name":"account","type":"address"}],"name":"OwnableUnauthorizedAccount","type":"error"},{"anonymous":false,"inputs":[{"indexed":true,"internalType":"address","name":"owner","type":"address"},{"indexed":true,"internalType":"address","name":"approved","type":"address"},{"indexed":true,"internalType":"uint256","name":"tokenId","type":"uint256"}],"name":"Approval","type":"event"},{"anonymous":false,"inputs":[{"indexed":true,"internalType":"address","name":"owner","type":"address"},{"indexed":true,"internalType":"address","name":"operator","type":"address"},{"indexed":false,"internalType":"bool","name":"approved","type":"bool"}],"name":"ApprovalForAll","type":"event"},{"anonymous":false,"inputs":[{"indexed":true,"internalType":"address","name":"to","type":"address"},{"indexed":false,"internalType":"uint256","name":"tokenId","type":"uint256"}],"name":"CommunityShardMinted","type":"event"},{"anonymous":false,"inputs":[{"indexed":true,"internalType":"address","name":"previousOwner","type":"address"},{"indexed":true,"internalType":"address","name":"newOwner","type":"address"}],"name":"OwnershipTransferred","type":"event"},{"anonymous":false,"inputs":[{"indexed":true,"internalType":"address","name":"to","type":"address"},{"indexed":false,"internalType":"uint256","name":"tokenId","type":"uint256"}],"name":"ReferralShardMinted","type":"event"},{"anonymous":false,"inputs":[],"name":"ReferralShardsOpenedForSale","type":"event"},{"anonymous":false,"inputs":[{"indexed":true,"internalType":"address","name":"from","type":"address"},{"indexed":true,"internalType":"address","name":"to","type":"address"},{"indexed":true,"internalType":"uint256","name":"tokenId","type":"uint256"}],"name":"Transfer","type":"event"},{"inputs":[],"name":"COMMUNITY_SHARD_SUPPLY","outputs":[{"internalType":"uint256","name":"","type":"uint256"}],"stateMutability":"view","type":"function"},{"inputs":[],"name":"MAX_FULL_SUPPLY","outputs":[{"internalType":"uint256","name":"","type":"uint256"}],"stateMutability":"view","type":"function"},{"inputs":[],"name":"MAX_SHARD_SUPPLY","outputs":[{"internalType":"uint256","name":"","type":"uint256"}],"stateMutability":"view","type":"function"},{"inputs":[],"name":"REFERRAL_SHARD_SUPPLY","outputs":[{"internalType":"uint256","name":"","type":"uint256"}],"stateMutability":"view","type":"function"},{"inputs":[],"name":"TOTAL_SHARD_SUPPLY","outputs":[{"internalType":"uint256","name":"","type":"uint256"}],"stateMutability":"view","type":"function"},{"inputs":[{"internalType":"address","name":"to","type":"address"},{"internalType":"uint256","name":"tokenId","type":"uint256"}],"name":"approve","outputs":[],"stateMutability":"nonpayable","type":"function"},{"inputs":[{"internalType":"address","name":"owner","type":"address"}],"name":"balanceOf","outputs":[{"internalType":"uint256","name":"","type":"uint256"}],"stateMutability":"view","type":"function"},{"inputs":[],"name":"communityShardsMinted","outputs":[{"internalType":"uint256","name":"","type":"uint256"}],"stateMutability":"view","type":"function"},{"inputs":[],"name":"fullMinted","outputs":[{"internalType":"uint256","name":"","type":"uint256"}],"stateMutability":"view","type":"function"},{"inputs":[],"name":"fullPrice","outputs":[{"internalType":"uint256","name":"","type":"uint256"}],"stateMutability":"view","type":"function"},{"inputs":[{"internalType":"uint256","name":"tokenId","type":"uint256"}],"name":"getApproved","outputs":[{"internalType":"address","name":"","type":"address"}],"stateMutability":"view","type":"function"},{"inputs":[],"name":"getSupplyInfo","outputs":[{"internalType":"uint256","name":"maxFull","type":"uint256"},{"internalType":"uint256","name":"maxShard","type":"uint256"},{"internalType":"uint256","name":"maxReferralShard","type":"uint256"},{"internalType":"uint256","name":"maxCommunityShard","type":"uint256"},{"internalType":"uint256","name":"mintedFull","type":"uint256"},{"internalType":"uint256","name":"mintedShard","type":"uint256"},{"internalType":"uint256","name":"mintedReferralShard","type":"uint256"},{"internalType":"uint256","name":"mintedCommunityShard","type":"uint256"}],"stateMutability":"view","type":"function"},{"inputs":[{"internalType":"address","name":"owner","type":"address"},{"internalType":"address","name":"operator","type":"address"}],"name":"isApprovedForAll","outputs":[{"internalType":"bool","name":"","type":"bool"}],"stateMutability":"view","type":"function"},{"inputs":[{"internalType":"uint256","name":"tokenId","type":"uint256"}],"name":"isCommunityShard","outputs":[{"internalType":"bool","name":"","type":"bool"}],"stateMutability":"view","type":"function"},{"inputs":[{"internalType":"uint256","name":"tokenId","type":"uint256"}],"name":"isReferralShard","outputs":[{"internalType":"bool","name":"","type":"bool"}],"stateMutability":"view","type":"function"},{"inputs":[{"internalType":"address","name":"to","type":"address"}],"name":"mintCommunityShard","outputs":[],"stateMutability":"nonpayable","type":"function"},{"inputs":[{"internalType":"uint256","name":"quantity","type":"uint256"}],"name":"mintFull","outputs":[],"stateMutability":"payable","type":"function"},{"inputs":[{"internalType":"address","name":"to","type":"address"}],"name":"mintReferralShard","outputs":[],"stateMutability":"nonpayable","type":"function"},{"inputs":[{"internalType":"uint256","name":"quantity","type":"uint256"}],"name":"mintShard","outputs":[],"stateMutability":"payable","type":"function"},{"inputs":[],"name":"name","outputs":[{"internalType":"string","name":"","type":"string"}],"stateMutability":"view","type":"function"},{"inputs":[],"name":"openReferralShardsForSale","outputs":[],"stateMutability":"nonpayable","type":"function"},{"inputs":[],"name":"owner","outputs":[{"internalType":"address","name":"","type":"address"}],"stateMutability":"view","type":"function"},{"inputs":[{"internalType":"uint256","name":"tokenId","type":"uint256"}],"name":"ownerOf","outputs":[{"internalType":"address","name":"","type":"address"}],"stateMutability":"view","type":"function"},{"inputs":[{"internalType":"uint256","name":"tokenId","type":"uint256"}],"name":"passType","outputs":[{"internalType":"enum SatoshiKNYTReservation.PassType","name":"","type":"uint8"}],"stateMutability":"view","type":"function"},{"inputs":[],"name":"referralShardsCanBeSold","outputs":[{"internalType":"bool","name":"","type":"bool"}],"stateMutability":"view","type":"function"},{"inputs":[],"name":"referralShardsMinted","outputs":[{"internalType":"uint256","name":"","type":"uint256"}],"stateMutability":"view","type":"function"},{"inputs":[],"name":"renounceOwnership","outputs":[],"stateMutability":"nonpayable","type":"function"},{"inputs":[{"internalType":"address","name":"from","type":"address"},{"internalType":"address","name":"to","type":"address"},{"internalType":"uint256","name":"tokenId","type":"uint256"}],"name":"safeTransferFrom","outputs":[],"stateMutability":"nonpayable","type":"function"},{"inputs":[{"internalType":"address","name":"from","type":"address"},{"internalType":"address","name":"to","type":"address"},{"internalType":"uint256","name":"tokenId","type":"uint256"},{"internalType":"bytes","name":"data","type":"bytes"}],"name":"safeTransferFrom","outputs":[],"stateMutability":"nonpayable","type":"function"},{"inputs":[],"name":"saleIsActive","outputs":[{"internalType":"bool","name":"","type":"bool"}],"stateMutability":"view","type":"function"},{"inputs":[{"internalType":"address","name":"operator","type":"address"},{"internalType":"bool","name":"approved","type":"bool"}],"name":"setApprovalForAll","outputs":[],"stateMutability":"nonpayable","type":"function"},{"inputs":[{"internalType":"string","name":"baseURI","type":"string"}],"name":"setBaseURI","outputs":[],"stateMutability":"nonpayable","type":"function"},{"inputs":[{"internalType":"uint256","name":"_fullPrice","type":"uint256"},{"internalType":"uint256","name":"_shardPrice","type":"uint256"}],"name":"setPrices","outputs":[],"stateMutability":"nonpayable","type":"function"},{"inputs":[],"name":"shardMinted","outputs":[{"internalType":"uint256","name":"","type":"uint256"}],"stateMutability":"view","type":"function"},{"inputs":[],"name":"shardPrice","outputs":[{"internalType":"uint256","name":"","type":"uint256"}],"stateMutability":"view","type":"function"},{"inputs":[{"internalType":"bytes4","name":"interfaceId","type":"bytes4"}],"name":"supportsInterface","outputs":[{"internalType":"bool","name":"","type":"bool"}],"stateMutability":"view","type":"function"},{"inputs":[],"name":"symbol","outputs":[{"internalType":"string","name":"","type":"string"}],"stateMutability":"view","type":"function"},{"inputs":[],"name":"toggleSaleState","outputs":[],"stateMutability":"nonpayable","type":"function"},{"inputs":[{"internalType":"uint256","name":"index","type":"uint256"}],"name":"tokenByIndex","outputs":[{"internalType":"uint256","name":"","type":"uint256"}],"stateMutability":"view","type":"function"},{"inputs":[{"internalType":"address","name":"owner","type":"address"},{"internalType":"uint256","name":"index","type":"uint256"}],"name":"tokenOfOwnerByIndex","outputs":[{"internalType":"uint256","name":"","type":"uint256"}],"stateMutability":"view","type":"function"},{"inputs":[{"internalType":"uint256","name":"tokenId","type":"uint256"}],"name":"tokenURI","outputs":[{"internalType":"string","name":"","type":"string"}],"stateMutability":"view","type":"function"},{"inputs":[],"name":"totalSupply","outputs":[{"internalType":"uint256","name":"","type":"uint256"}],"stateMutability":"view","type":"function"},{"inputs":[{"internalType":"address","name":"from","type":"address"},{"internalType":"address","name":"to","type":"address"},{"internalType":"uint256","name":"tokenId","type":"uint256"}],"name":"transferFrom","outputs":[],"stateMutability":"nonpayable","type":"function"},{"inputs":[{"internalType":"address","name":"newOwner","type":"address"}],"name":"transferOwnership","outputs":[],"stateMutability":"nonpayable","type":"function"},{"inputs":[],"name":"withdraw","outputs":[],"stateMutability":"nonpayable","type":"function"}],"evm":{"bytecode":{"linkReferences":{},"object":"60806040523480156200001157600080fd5b50604051620026ac380380620026ac833981016040819052620000349162000171565b336040518060400160405280601881526020017f32312053617473205265736572766174696f6e2050617373000000000000000081525060405180604001604052806005815260200164032315352560dc1b81525081600090816200009a9190620002e9565b506001620000a98282620002e9565b5050506001600160a01b038116620000db57604051631e4fbdf760e01b81526000600482015260240160405180910390fd5b620000e68162000109565b50600b839055600c8290556015620000ff8282620002e9565b50505050620003b5565b600a80546001600160a01b038381166001600160a01b0319831681179093556040519116919082907f8be0079c531659141344cd1fd0a4f28419497f9722a3daafe3b4186f6b6457e090600090a35050565b634e487b7160e01b600052604160045260246000fd5b6000806000606084860312156200018757600080fd5b835160208086015160408701519295509350906001600160401b0380821115620001b057600080fd5b818701915087601f830112620001c557600080fd5b815181811115620001da57620001da6200015b565b604051601f8201601f19908116603f011681019083821181831017156200020557620002056200015b565b816040528281528a868487010111156200021e57600080fd5b600093505b8284101562000242578484018601518185018701529285019262000223565b60008684830101528096505050505050509250925092565b600181811c908216806200026f57607f821691505b6020821081036200029057634e487b7160e01b600052602260045260246000fd5b50919050565b601f821115620002e457600081815260208120601f850160051c81016020861015620002bf5750805b601f850160051c820191505b81811015620002e057828155600101620002cb565b5050505b505050565b81516001600160401b038111156200030557620003056200015b565b6200031d816200031684546200025a565b8462000296565b602080601f8311600181146200035557600084156200033c5750858301515b600019600386901b1c1916600185901b178555620002e0565b600085815260208120601f198616915b82811015620003865788860151825594840194600190910190840162000365565b5085821015620003a55787850151600019600388901b60f8161c191681555b5050505050600190811b01905550565b6122e780620003c56000396000f3fe6080604052600436106102725760003560e01c80636352211e1161014f578063c7c70952116100c1578063edd634b81161007a578063edd634b81461071a578063efb46a6714610730578063f2fde38b14610745578063f8adb8db14610765578063f9cc479214610784578063ff7c9ac51461079a57600080fd5b8063c7c70952146102ac578063c87b56dd1461068b578063daaeec86146106ab578063e01f803b146106c0578063e985e9c5146106e0578063eb8d24441461070057600080fd5b806395d89b411161011357806395d89b41146105ee578063978b69f4146106035780639caff99914610618578063a22cb46514610638578063a6b5b10d14610658578063b88d4fde1461066b57600080fd5b80636352211e1461055b57806363e20c541461057b57806370a082311461059b578063715018a6146105bb5780638da5cb5b146105d057600080fd5b806323b872dd116101e85780633ccfd60b116101ac5780633ccfd60b146104a657806340f52d09146104bb57806342842e0e146104ce5780634f6ccce7146104ee57806355e732da1461050e57806355f804b31461053b57600080fd5b806323b872dd1461041a5780632517b8fb1461043a5780632b58b758146104505780632f745c59146104705780633ab53d341461049057600080fd5b806306fdde031161023a57806306fdde031461031c578063081812fc1461033e578063095ea7b31461037657806318160ddd146103965780631b9ebc70146103ab57806320edeaf3146103c057600080fd5b806301ffc9a71461027757806302a18c98146102ac57806303b81c96146102cf57806303e4795d146102e557806305fefda7146102fc575b600080fd5b34801561028357600080fd5b50610297610292366004611ce2565b6107b0565b60405190151581526020015b60405180910390f35b3480156102b857600080fd5b506102c1601281565b6040519081526020016102a3565b3480156102db57600080fd5b506102c1600e5481565b3480156102f157600080fd5b506102fa6107db565b005b34801561030857600080fd5b506102fa610317366004611cff565b61081d565b34801561032857600080fd5b50610331610830565b6040516102a39190611d71565b34801561034a57600080fd5b5061035e610359366004611d84565b6108c2565b6040516001600160a01b0390911681526020016102a3565b34801561038257600080fd5b506102fa610391366004611db9565b6108eb565b3480156103a257600080fd5b506008546102c1565b3480156103b757600080fd5b506102c1600381565b3480156103cc57600080fd5b50600d54600e54600f54601054604080516012808252601560208301529181019190915260036060820152608081019490945260a084019290925260c083015260e0820152610100016102a3565b34801561042657600080fd5b506102fa610435366004611de3565b6108fa565b34801561044657600080fd5b506102c160105481565b34801561045c57600080fd5b506102fa61046b366004611e1f565b61098a565b34801561047c57600080fd5b506102c161048b366004611db9565b610a9d565b34801561049c57600080fd5b506102c1600d5481565b3480156104b257600080fd5b506102fa610b02565b6102fa6104c9366004611d84565b610b46565b3480156104da57600080fd5b506102fa6104e9366004611de3565b610d28565b3480156104fa57600080fd5b506102c1610509366004611d84565b610d43565b34801561051a57600080fd5b5061052e610529366004611d84565b610d9c565b6040516102a39190611e3a565b34801561054757600080fd5b506102fa610556366004611eee565b610de6565b34801561056757600080fd5b5061035e610576366004611d84565b610dfa565b34801561058757600080fd5b50610297610596366004611d84565b610e05565b3480156105a757600080fd5b506102c16105b6366004611e1f565b610e4f565b3480156105c757600080fd5b506102fa610e97565b3480156105dc57600080fd5b50600a546001600160a01b031661035e565b3480156105fa57600080fd5b50610331610eab565b34801561060f57600080fd5b506102c1602a81565b34801561062457600080fd5b506102fa610633366004611e1f565b610eba565b34801561064457600080fd5b506102fa610653366004611f37565b610fc1565b6102fa610666366004611d84565b610fcc565b34801561067757600080fd5b506102fa610686366004611f73565b611172565b34801561069757600080fd5b506103316106a6366004611d84565b61118a565b3480156106b757600080fd5b506102fa6111f2565b3480156106cc57600080fd5b506102976106db366004611d84565b61120e565b3480156106ec57600080fd5b506102976106fb366004611fef565b611258565b34801561070c57600080fd5b506011546102979060ff1681565b34801561072657600080fd5b506102c1600b5481565b34801561073c57600080fd5b506102c1601581565b34801561075157600080fd5b506102fa610760366004611e1f565b611286565b34801561077157600080fd5b5060115461029790610100900460ff1681565b34801561079057600080fd5b506102c1600f5481565b3480156107a657600080fd5b506102c1600c5481565b60006001600160e01b0319821663780e9d6360e01b14806107d557506107d5826112c1565b92915050565b6107e3611311565b6011805461ff0019166101001790556040517f4751e9a03f84a3c9b35b69492e73c3b8ad1f2deac21a6ae8a86c130195ff9a5390600090a1565b610825611311565b600b91909155600c55565b60606000805461083f90612022565b80601f016020809104026020016040519081016040528092919081815260200182805461086b90612022565b80156108b85780601f1061088d576101008083540402835291602001916108b8565b820191906000526020600020905b81548152906001019060200180831161089b57829003601f168201915b5050505050905090565b60006108cd8261133e565b506000828152600460205260409020546001600160a01b03166107d5565b6108f6828233611377565b5050565b6001600160a01b03821661092957604051633250574960e11b8152600060048201526024015b60405180910390fd5b6000610936838333611384565b9050836001600160a01b0316816001600160a01b031614610984576040516364283d7b60e01b81526001600160a01b0380861660048301526024820184905282166044820152606401610920565b50505050565b610992611311565b6012600f54106109e45760405162461bcd60e51b815260206004820152601a60248201527f416c6c20726566657272616c20736861726473206d696e7465640000000000006044820152606401610920565b60006109ef60085490565b6109fa906001612072565b90506001600f6000828254610a0f9190612072565b9091555050600081815260126020526040902080546001919060ff1916828002179055506000818152601360205260409020805460ff19166001179055610a568282611459565b816001600160a01b03167fd5f90f9282064b00c7597c500d4493d01d5f8d5057fc37c3c9cf810adac050c082604051610a9191815260200190565b60405180910390a25050565b6000610aa883610e4f565b8210610ad95760405163295f44f760e21b81526001600160a01b038416600482015260248101839052604401610920565b506001600160a01b03919091166000908152600660209081526040808320938352929052205490565b610b0a611311565b600a546040516001600160a01b03909116904780156108fc02916000818181858888f19350505050158015610b43573d6000803e3d6000fd5b50565b60115460ff16610b8d5760405162461bcd60e51b815260206004820152601260248201527153616c65206973206e6f742061637469766560701b6044820152606401610920565b60008111610bd95760405162461bcd60e51b81526020600482015260196024820152785175616e74697479206d75737420626520706f73697469766560381b6044820152606401610920565b601154600090610100900460ff16610bf2576000610c00565b600f54610c00906012612085565b610c0b906015612072565b90508082600e54610c1c9190612072565b1115610c615760405162461bcd60e51b81526020600482015260146024820152734578636565647320736861726420737570706c7960601b6044820152606401610920565b81600c54610c6f9190612098565b3414610cb25760405162461bcd60e51b8152602060048201526012602482015271125b98dbdc9c9958dd08115512081cd95b9d60721b6044820152606401610920565b60005b82811015610d23576000610cc860085490565b610cd3906001612072565b90506001600e6000828254610ce89190612072565b90915550506000818152601260205260409020805460ff19166001179055610d103382611459565b5080610d1b816120af565b915050610cb5565b505050565b610d2383838360405180602001604052806000815250611172565b6000610d4e60085490565b8210610d775760405163295f44f760e21b81526000600482015260248101839052604401610920565b60088281548110610d8a57610d8a6120c8565b90600052602060002001549050919050565b6000818152600260205260408120546001600160a01b0316610dd05760405162461bcd60e51b8152600401610920906120de565b5060009081526012602052604090205460ff1690565b610dee611311565b60156108f68282612152565b60006107d58261133e565b6000818152600260205260408120546001600160a01b0316610e395760405162461bcd60e51b8152600401610920906120de565b5060009081526014602052604090205460ff1690565b60006001600160a01b038216610e7b576040516322718ad960e21b815260006004820152602401610920565b506001600160a01b031660009081526003602052604090205490565b610e9f611311565b610ea96000611473565b565b60606001805461083f90612022565b610ec2611311565b600360105410610f145760405162461bcd60e51b815260206004820152601b60248201527f416c6c20636f6d6d756e69747920736861726473206d696e74656400000000006044820152606401610920565b6000610f1f60085490565b610f2a906001612072565b9050600160106000828254610f3f9190612072565b9091555050600081815260126020526040902080546001919060ff1916828002179055506000818152601460205260409020805460ff19166001179055610f868282611459565b816001600160a01b03167fb34cbf521ee0761ba45167fd002205a42201084c06bf6e6e52338e471267baba82604051610a9191815260200190565b6108f63383836114c5565b60115460ff166110135760405162461bcd60e51b815260206004820152601260248201527153616c65206973206e6f742061637469766560701b6044820152606401610920565b6000811161105f5760405162461bcd60e51b81526020600482015260196024820152785175616e74697479206d75737420626520706f73697469766560381b6044820152606401610920565b601281600d5461106f9190612072565b11156110b35760405162461bcd60e51b8152602060048201526013602482015272457863656564732066756c6c20737570706c7960681b6044820152606401610920565b80600b546110c19190612098565b34146111045760405162461bcd60e51b8152602060048201526012602482015271125b98dbdc9c9958dd08115512081cd95b9d60721b6044820152606401610920565b60005b818110156108f657600061111a60085490565b611125906001612072565b90506001600d600082825461113a9190612072565b90915550506000818152601260205260409020805460ff1916905561115f3382611459565b508061116a816120af565b915050611107565b61117d8484846108fa565b6109843385858585611564565b60606111958261133e565b5060006111a061168f565b905060008151116111c057604051806020016040528060008152506111eb565b806111ca8461169e565b6040516020016111db929190612212565b6040516020818303038152906040525b9392505050565b6111fa611311565b6011805460ff19811660ff90911615179055565b6000818152600260205260408120546001600160a01b03166112425760405162461bcd60e51b8152600401610920906120de565b5060009081526013602052604090205460ff1690565b6001600160a01b03918216600090815260056020908152604080832093909416825291909152205460ff1690565b61128e611311565b6001600160a01b0381166112b857604051631e4fbdf760e01b815260006004820152602401610920565b610b4381611473565b60006001600160e01b031982166380ac58cd60e01b14806112f257506001600160e01b03198216635b5e139f60e01b145b806107d557506301ffc9a760e01b6001600160e01b03198316146107d5565b600a546001600160a01b03163314610ea95760405163118cdaa760e01b8152336004820152602401610920565b6000818152600260205260408120546001600160a01b0316806107d557604051637e27328960e01b815260048101849052602401610920565b610d238383836001611731565b600080611392858585611837565b90506001600160a01b0381166113ef576113ea84600880546000838152600960205260408120829055600182018355919091527ff3f7a9fe364faab93b216da50a3214154f22a0a2b415b23a84c8169e8b636ee30155565b611412565b846001600160a01b0316816001600160a01b031614611412576114128185611930565b6001600160a01b03851661142e57611429846119b1565b611451565b846001600160a01b0316816001600160a01b031614611451576114518585611a60565b949350505050565b6108f6828260405180602001604052806000815250611ab0565b600a80546001600160a01b038381166001600160a01b0319831681179093556040519116919082907f8be0079c531659141344cd1fd0a4f28419497f9722a3daafe3b4186f6b6457e090600090a35050565b6001600160a01b0382166114f757604051630b61174360e31b81526001600160a01b0383166004820152602401610920565b6001600160a01b03838116600081815260056020908152604080832094871680845294825291829020805460ff191686151590811790915591519182527f17307eab39ab6107e8899845ad3d59bd9653f200f220920489ca2b5937696c31910160405180910390a3505050565b6001600160a01b0383163b1561168857604051630a85bd0160e11b81526001600160a01b0384169063150b7a02906115a6908890889087908790600401612241565b6020604051808303816000875af19250505080156115e1575060408051601f3d908101601f191682019092526115de9181019061227e565b60015b61164a573d80801561160f576040519150601f19603f3d011682016040523d82523d6000602084013e611614565b606091505b50805160000361164257604051633250574960e11b81526001600160a01b0385166004820152602401610920565b805160208201fd5b6001600160e01b03198116630a85bd0160e11b1461168657604051633250574960e11b81526001600160a01b0385166004820152602401610920565b505b5050505050565b60606015805461083f90612022565b606060006116ab83611ac8565b600101905060008167ffffffffffffffff8111156116cb576116cb611e62565b6040519080825280601f01601f1916602001820160405280156116f5576020820181803683370190505b5090508181016020015b600019016f181899199a1a9b1b9c1cb0b131b232b360811b600a86061a8153600a85049450846116ff57509392505050565b808061174557506001600160a01b03821615155b156118075760006117558461133e565b90506001600160a01b038316158015906117815750826001600160a01b0316816001600160a01b031614155b801561179457506117928184611258565b155b156117bd5760405163a9fbf51f60e01b81526001600160a01b0384166004820152602401610920565b81156118055783856001600160a01b0316826001600160a01b03167f8c5be1e5ebec7d5bd14f71427d1e84f3dd0314c0f7b2291e5b200ac8c7c3b92560405160405180910390a45b505b5050600090815260046020526040902080546001600160a01b0319166001600160a01b0392909216919091179055565b6000828152600260205260408120546001600160a01b039081169083161561186457611864818486611ba0565b6001600160a01b038116156118a257611881600085600080611731565b6001600160a01b038116600090815260036020526040902080546000190190555b6001600160a01b038516156118d1576001600160a01b0385166000908152600360205260409020805460010190555b60008481526002602052604080822080546001600160a01b0319166001600160a01b0389811691821790925591518793918516917fddf252ad1be2c89b69c2b068fc378daa952ba7f163c4a11628f55a4df523b3ef91a4949350505050565b600061193b83610e4f565b6000838152600760209081526040808320546001600160a01b038816845260069092529091209192509081831461199257600083815260208281526040808320548584528184208190558352600790915290208290555b6000938452600760209081526040808620869055938552525081205550565b6008546000906119c390600190612085565b600083815260096020526040812054600880549394509092849081106119eb576119eb6120c8565b906000526020600020015490508060088381548110611a0c57611a0c6120c8565b6000918252602080832090910192909255828152600990915260408082208490558582528120556008805480611a4457611a4461229b565b6001900381819060005260206000200160009055905550505050565b60006001611a6d84610e4f565b611a779190612085565b6001600160a01b039093166000908152600660209081526040808320868452825280832085905593825260079052919091209190915550565b611aba8383611c04565b610d23336000858585611564565b60008072184f03e93ff9f4daa797ed6e38ed64bf6a1f0160401b8310611b075772184f03e93ff9f4daa797ed6e38ed64bf6a1f0160401b830492506040015b6d04ee2d6d415b85acef81000000008310611b33576d04ee2d6d415b85acef8100000000830492506020015b662386f26fc100008310611b5157662386f26fc10000830492506010015b6305f5e1008310611b69576305f5e100830492506008015b6127108310611b7d57612710830492506004015b60648310611b8f576064830492506002015b600a83106107d55760010192915050565b611bab838383611c69565b610d23576001600160a01b038316611bd957604051637e27328960e01b815260048101829052602401610920565b60405163177e802f60e01b81526001600160a01b038316600482015260248101829052604401610920565b6001600160a01b038216611c2e57604051633250574960e11b815260006004820152602401610920565b6000611c3c83836000611384565b90506001600160a01b03811615610d23576040516339e3563760e11b815260006004820152602401610920565b60006001600160a01b038316158015906114515750826001600160a01b0316846001600160a01b03161480611ca35750611ca38484611258565b806114515750506000908152600460205260409020546001600160a01b03908116911614919050565b6001600160e01b031981168114610b4357600080fd5b600060208284031215611cf457600080fd5b81356111eb81611ccc565b60008060408385031215611d1257600080fd5b50508035926020909101359150565b60005b83811015611d3c578181015183820152602001611d24565b50506000910152565b60008151808452611d5d816020860160208601611d21565b601f01601f19169290920160200192915050565b6020815260006111eb6020830184611d45565b600060208284031215611d9657600080fd5b5035919050565b80356001600160a01b0381168114611db457600080fd5b919050565b60008060408385031215611dcc57600080fd5b611dd583611d9d565b946020939093013593505050565b600080600060608486031215611df857600080fd5b611e0184611d9d565b9250611e0f60208501611d9d565b9150604084013590509250925092565b600060208284031215611e3157600080fd5b6111eb82611d9d565b6020810160028310611e5c57634e487b7160e01b600052602160045260246000fd5b91905290565b634e487b7160e01b600052604160045260246000fd5b600067ffffffffffffffff80841115611e9357611e93611e62565b604051601f8501601f19908116603f01168101908282118183101715611ebb57611ebb611e62565b81604052809350858152868686011115611ed457600080fd5b858560208301376000602087830101525050509392505050565b600060208284031215611f0057600080fd5b813567ffffffffffffffff811115611f1757600080fd5b8201601f81018413611f2857600080fd5b61145184823560208401611e78565b60008060408385031215611f4a57600080fd5b611f5383611d9d565b915060208301358015158114611f6857600080fd5b809150509250929050565b60008060008060808587031215611f8957600080fd5b611f9285611d9d565b9350611fa060208601611d9d565b925060408501359150606085013567ffffffffffffffff811115611fc357600080fd5b8501601f81018713611fd457600080fd5b611fe387823560208401611e78565b91505092959194509250565b6000806040838503121561200257600080fd5b61200b83611d9d565b915061201960208401611d9d565b90509250929050565b600181811c9082168061203657607f821691505b60208210810361205657634e487b7160e01b600052602260045260246000fd5b50919050565b634e487b7160e01b600052601160045260246000fd5b808201808211156107d5576107d561205c565b818103818111156107d5576107d561205c565b80820281158282048414176107d5576107d561205c565b6000600182016120c1576120c161205c565b5060010190565b634e487b7160e01b600052603260045260246000fd5b602080825260149082015273151bdad95b88191bd95cc81b9bdd08195e1a5cdd60621b604082015260600190565b601f821115610d2357600081815260208120601f850160051c810160208610156121335750805b601f850160051c820191505b818110156116865782815560010161213f565b815167ffffffffffffffff81111561216c5761216c611e62565b6121808161217a8454612022565b8461210c565b602080601f8311600181146121b5576000841561219d5750858301515b600019600386901b1c1916600185901b178555611686565b600085815260208120601f198616915b828110156121e4578886015182559484019460019091019084016121c5565b50858210156122025787850151600019600388901b60f8161c191681555b5050505050600190811b01905550565b60008351612224818460208801611d21565b835190830190612238818360208801611d21565b01949350505050565b6001600160a01b038581168252841660208201526040810183905260806060820181905260009061227490830184611d45565b9695505050505050565b60006020828403121561229057600080fd5b81516111eb81611ccc565b634e487b7160e01b600052603160045260246000fdfea2646970667358221220b0a4355f07822e2b422a58c988e14e9d77e96250b41b031f6a1cd0ac87136db664736f6c63430008140033","opcodes":"PUSH1 0x80 PUSH1 0x40 MSTORE CALLVALUE DUP1 ISZERO PUSH3 0x11 JUMPI PUSH1 0x0 DUP1 REVERT JUMPDEST POP PUSH1 0x40 MLOAD PUSH3 0x26AC CODESIZE SUB DUP1 PUSH3 0x26AC DUP4 CODECOPY DUP2 ADD PUSH1 0x40 DUP2 SWAP1 MSTORE PUSH3 0x34 SWAP2 PUSH3 0x171 JUMP JUMPDEST CALLER PUSH1 0x40 MLOAD DUP1 PUSH1 0x40 ADD PUSH1 0x40 MSTORE DUP1 PUSH1 0x18 DUP2 MSTORE PUSH1 0x20 ADD PUSH32 0x32312053617473205265736572766174696F6E20506173730000000000000000 DUP2 MSTORE POP PUSH1 0x40 MLOAD DUP1 PUSH1 0x40 ADD PUSH1 0x40 MSTORE DUP1 PUSH1 0x5 DUP2 MSTORE PUSH1 0x20 ADD PUSH5 0x323153525 PUSH1 0xDC SHL DUP2 MSTORE POP DUP2 PUSH1 0x0 SWAP1 DUP2 PUSH3 0x9A SWAP2 SWAP1 PUSH3 0x2E9 JUMP JUMPDEST POP PUSH1 0x1 PUSH3 0xA9 DUP3 DUP3 PUSH3 0x2E9 JUMP JUMPDEST POP POP POP PUSH1 0x1 PUSH1 0x1 PUSH1 0xA0 SHL SUB DUP2 AND PUSH3 0xDB JUMPI PUSH1 0x40 MLOAD PUSH4 0x1E4FBDF7 PUSH1 0xE0 SHL DUP2 MSTORE PUSH1 0x0 PUSH1 0x4 DUP3 ADD MSTORE PUSH1 0x24 ADD PUSH1 0x40 MLOAD DUP1 SWAP2 SUB SWAP1 REVERT JUMPDEST PUSH3 0xE6 DUP2 PUSH3 0x109 JUMP JUMPDEST POP PUSH1 0xB DUP4 SWAP1 SSTORE PUSH1 0xC DUP3 SWAP1 SSTORE PUSH1 0x15 PUSH3 0xFF DUP3 DUP3 PUSH3 0x2E9 JUMP JUMPDEST POP POP POP POP PUSH3 0x3B5 JUMP JUMPDEST PUSH1 0xA DUP1 SLOAD PUSH1 0x1 PUSH1 0x1 PUSH1 0xA0 SHL SUB DUP4 DUP2 AND PUSH1 0x1 PUSH1 0x1 PUSH1 0xA0 SHL SUB NOT DUP4 AND DUP2 OR SWAP1 SWAP4 SSTORE PUSH1 0x40 MLOAD SWAP2 AND SWAP2 SWAP1 DUP3 SWAP1 PUSH32 0x8BE0079C531659141344CD1FD0A4F28419497F9722A3DAAFE3B4186F6B6457E0 SWAP1 PUSH1 0x0 SWAP1 LOG3 POP POP JUMP JUMPDEST PUSH4 0x4E487B71 PUSH1 0xE0 SHL PUSH1 0x0 MSTORE PUSH1 0x41 PUSH1 0x4 MSTORE PUSH1 0x24 PUSH1 0x0 REVERT JUMPDEST PUSH1 0x0 DUP1 PUSH1 0x0 PUSH1 0x60 DUP5 DUP7 SUB SLT ISZERO PUSH3 0x187 JUMPI PUSH1 0x0 DUP1 REVERT JUMPDEST DUP4 MLOAD PUSH1 0x20 DUP1 DUP7 ADD MLOAD PUSH1 0x40 DUP8 ADD MLOAD SWAP3 SWAP6 POP SWAP4 POP SWAP1 PUSH1 0x1 PUSH1 0x1 PUSH1 0x40 SHL SUB DUP1 DUP3 GT ISZERO PUSH3 0x1B0 JUMPI PUSH1 0x0 DUP1 REVERT JUMPDEST DUP2 DUP8 ADD SWAP2 POP DUP8 PUSH1 0x1F DUP4 ADD SLT PUSH3 0x1C5 JUMPI PUSH1 0x0 DUP1 REVERT JUMPDEST DUP2 MLOAD DUP2 DUP2 GT ISZERO PUSH3 0x1DA JUMPI PUSH3 0x1DA PUSH3 0x15B JUMP JUMPDEST PUSH1 0x40 MLOAD PUSH1 0x1F DUP3 ADD PUSH1 0x1F NOT SWAP1 DUP2 AND PUSH1 0x3F ADD AND DUP2 ADD SWAP1 DUP4 DUP3 GT DUP2 DUP4 LT OR ISZERO PUSH3 0x205 JUMPI PUSH3 0x205 PUSH3 0x15B JUMP JUMPDEST DUP2 PUSH1 0x40 MSTORE DUP3 DUP2 MSTORE DUP11 DUP7 DUP5 DUP8 ADD ADD GT ISZERO PUSH3 0x21E JUMPI PUSH1 0x0 DUP1 REVERT JUMPDEST PUSH1 0x0 SWAP4 POP JUMPDEST DUP3 DUP5 LT ISZERO PUSH3 0x242 JUMPI DUP5 DUP5 ADD DUP7 ADD MLOAD DUP2 DUP6 ADD DUP8 ADD MSTORE SWAP3 DUP6 ADD SWAP3 PUSH3 0x223 JUMP JUMPDEST PUSH1 0x0 DUP7 DUP5 DUP4 ADD ADD MSTORE DUP1 SWAP7 POP POP POP POP POP POP POP SWAP3 POP SWAP3 POP SWAP3 JUMP JUMPDEST PUSH1 0x1 DUP2 DUP2 SHR SWAP1 DUP3 AND DUP1 PUSH3 0x26F JUMPI PUSH1 0x7F DUP3 AND SWAP2 POP JUMPDEST PUSH1 0x20 DUP3 LT DUP2 SUB PUSH3 0x290 JUMPI PUSH4 0x4E487B71 PUSH1 0xE0 SHL PUSH1 0x0 MSTORE PUSH1 0x22 PUSH1 0x4 MSTORE PUSH1 0x24 PUSH1 0x0 REVERT JUMPDEST POP SWAP2 SWAP1 POP JUMP JUMPDEST PUSH1 0x1F DUP3 GT ISZERO PUSH3 0x2E4 JUMPI PUSH1 0x0 DUP2 DUP2 MSTORE PUSH1 0x20 DUP2 KECCAK256 PUSH1 0x1F DUP6 ADD PUSH1 0x5 SHR DUP2 ADD PUSH1 0x20 DUP7 LT ISZERO PUSH3 0x2BF JUMPI POP DUP1 JUMPDEST PUSH1 0x1F DUP6 ADD PUSH1 0x5 SHR DUP3 ADD SWAP2 POP JUMPDEST DUP2 DUP2 LT ISZERO PUSH3 0x2E0 JUMPI DUP3 DUP2 SSTORE PUSH1 0x1 ADD PUSH3 0x2CB JUMP JUMPDEST POP POP POP JUMPDEST POP POP POP JUMP JUMPDEST DUP2 MLOAD PUSH1 0x1 PUSH1 0x1 PUSH1 0x40 SHL SUB DUP2 GT ISZERO PUSH3 0x305 JUMPI PUSH3 0x305 PUSH3 0x15B JUMP JUMPDEST PUSH3 0x31D DUP2 PUSH3 0x316 DUP5 SLOAD PUSH3 0x25A JUMP JUMPDEST DUP5 PUSH3 0x296 JUMP JUMPDEST PUSH1 0x20 DUP1 PUSH1 0x1F DUP4 GT PUSH1 0x1 DUP2 EQ PUSH3 0x355 JUMPI PUSH1 0x0 DUP5 ISZERO PUSH3 0x33C JUMPI POP DUP6 DUP4 ADD MLOAD JUMPDEST PUSH1 0x0 NOT PUSH1 0x3 DUP7 SWAP1 SHL SHR NOT AND PUSH1 0x1 DUP6 SWAP1 SHL OR DUP6 SSTORE PUSH3 0x2E0 JUMP JUMPDEST PUSH1 0x0 DUP6 DUP2 MSTORE PUSH1 0x20 DUP2 KECCAK256 PUSH1 0x1F NOT DUP7 AND SWAP2 JUMPDEST DUP3 DUP2 LT ISZERO PUSH3 0x386 JUMPI DUP9 DUP7 ADD MLOAD DUP3 SSTORE SWAP5 DUP5 ADD SWAP5 PUSH1 0x1 SWAP1 SWAP2 ADD SWAP1 DUP5 ADD PUSH3 0x365 JUMP JUMPDEST POP DUP6 DUP3 LT ISZERO PUSH3 0x3A5 JUMPI DUP8 DUP6 ADD MLOAD PUSH1 0x0 NOT PUSH1 0x3 DUP9 SWAP1 SHL PUSH1 0xF8 AND SHR NOT AND DUP2 SSTORE JUMPDEST POP POP POP POP POP PUSH1 0x1 SWAP1 DUP2 SHL ADD SWAP1 SSTORE POP JUMP JUMPDEST PUSH2 0x22E7 DUP1 PUSH3 0x3C5 PUSH1 0x0 CODECOPY PUSH1 0x0 RETURN INVALID PUSH1 0x80 PUSH1 0x40 MSTORE PUSH1 0x4 CALLDATASIZE LT PUSH2 0x272 JUMPI PUSH1 0x0 CALLDATALOAD PUSH1 0xE0 SHR DUP1 PUSH4 0x6352211E GT PUSH2 0x14F JUMPI DUP1 PUSH4 0xC7C70952 GT PUSH2 0xC1 JUMPI DUP1 PUSH4 0xEDD634B8 GT PUSH2 0x7A JUMPI DUP1 PUSH4 0xEDD634B8 EQ PUSH2 0x71A JUMPI DUP1 PUSH4 0xEFB46A67 EQ PUSH2 0x730 JUMPI DUP1 PUSH4 0xF2FDE38B EQ PUSH2 0x745 JUMPI DUP1 PUSH4 0xF8ADB8DB EQ PUSH2 0x765 JUMPI DUP1 PUSH4 0xF9CC4792 EQ PUSH2 0x784 JUMPI DUP1 PUSH4 0xFF7C9AC5 EQ PUSH2 0x79A JUMPI PUSH1 0x0 DUP1 REVERT JUMPDEST DUP1 PUSH4 0xC7C70952 EQ PUSH2 0x2AC JUMPI DUP1 PUSH4 0xC87B56DD EQ PUSH2 0x68B JUMPI DUP1 PUSH4 0xDAAEEC86 EQ PUSH2 0x6AB JUMPI DUP1 PUSH4 0xE01F803B EQ PUSH2 0x6C0 JUMPI DUP1 PUSH4 0xE985E9C5 EQ PUSH2 0x6E0 JUMPI DUP1 PUSH4 0xEB8D2444 EQ PUSH2 0x700 JUMPI PUSH1 0x0 DUP1 REVERT JUMPDEST DUP1 PUSH4 0x95D89B41 GT PUSH2 0x113 JUMPI DUP1 PUSH4 0x95D89B41 EQ PUSH2 0x5EE JUMPI DUP1 PUSH4 0x978B69F4 EQ PUSH2 0x603 JUMPI DUP1 PUSH4 0x9CAFF999 EQ PUSH2 0x618 JUMPI DUP1 PUSH4 0xA22CB465 EQ PUSH2 0x638 JUMPI DUP1 PUSH4 0xA6B5B10D EQ PUSH2 0x658 JUMPI DUP1 PUSH4 0xB88D4FDE EQ PUSH2 0x66B JUMPI PUSH1 0x0 DUP1 REVERT JUMPDEST DUP1 PUSH4 0x6352211E EQ PUSH2 0x55B JUMPI DUP1 PUSH4 0x63E20C54 EQ PUSH2 0x57B JUMPI DUP1 PUSH4 0x70A08231 EQ PUSH2 0x59B JUMPI DUP1 PUSH4 0x715018A6 EQ PUSH2 0x5BB JUMPI DUP1 PUSH4 0x8DA5CB5B EQ PUSH2 0x5D0 JUMPI PUSH1 0x0 DUP1 REVERT JUMPDEST DUP1 PUSH4 0x23B872DD GT PUSH2 0x1E8 JUMPI DUP1 PUSH4 0x3CCFD60B GT PUSH2 0x1AC JUMPI DUP1 PUSH4 0x3CCFD60B EQ PUSH2 0x4A6 JUMPI DUP1 PUSH4 0x40F52D09 EQ PUSH2 0x4BB JUMPI DUP1 PUSH4 0x42842E0E EQ PUSH2 0x4CE JUMPI DUP1 PUSH4 0x4F6CCCE7 EQ PUSH2 0x4EE JUMPI DUP1 PUSH4 0x55E732DA EQ PUSH2 0x50E JUMPI DUP1 PUSH4 0x55F804B3 EQ PUSH2 0x53B JUMPI PUSH1 0x0 DUP1 REVERT JUMPDEST DUP1 PUSH4 0x23B872DD EQ PUSH2 0x41A JUMPI DUP1 PUSH4 0x2517B8FB EQ PUSH2 0x43A JUMPI DUP1 PUSH4 0x2B58B758 EQ PUSH2 0x450 JUMPI DUP1 PUSH4 0x2F745C59 EQ PUSH2 0x470 JUMPI DUP1 PUSH4 0x3AB53D34 EQ PUSH2 0x490 JUMPI PUSH1 0x0 DUP1 REVERT JUMPDEST DUP1 PUSH4 0x6FDDE03 GT PUSH2 0x23A JUMPI DUP1 PUSH4 0x6FDDE03 EQ PUSH2 0x31C JUMPI DUP1 PUSH4 0x81812FC EQ PUSH2 0x33E JUMPI DUP1 PUSH4 0x95EA7B3 EQ PUSH2 0x376 JUMPI DUP1 PUSH4 0x18160DDD EQ PUSH2 0x396 JUMPI DUP1 PUSH4 0x1B9EBC70 EQ PUSH2 0x3AB JUMPI DUP1 PUSH4 0x20EDEAF3 EQ PUSH2 0x3C0 JUMPI PUSH1 0x0 DUP1 REVERT JUMPDEST DUP1 PUSH4 0x1FFC9A7 EQ PUSH2 0x277 JUMPI DUP1 PUSH4 0x2A18C98 EQ PUSH2 0x2AC JUMPI DUP1 PUSH4 0x3B81C96 EQ PUSH2 0x2CF JUMPI DUP1 PUSH4 0x3E4795D EQ PUSH2 0x2E5 JUMPI DUP1 PUSH4 0x5FEFDA7 EQ PUSH2 0x2FC JUMPI JUMPDEST PUSH1 0x0 DUP1 REVERT JUMPDEST CALLVALUE DUP1 ISZERO PUSH2 0x283 JUMPI PUSH1 0x0 DUP1 REVERT JUMPDEST POP PUSH2 0x297 PUSH2 0x292 CALLDATASIZE PUSH1 0x4 PUSH2 0x1CE2 JUMP JUMPDEST PUSH2 0x7B0 JUMP JUMPDEST PUSH1 0x40 MLOAD SWAP1 ISZERO ISZERO DUP2 MSTORE PUSH1 0x20 ADD JUMPDEST PUSH1 0x40 MLOAD DUP1 SWAP2 SUB SWAP1 RETURN JUMPDEST CALLVALUE DUP1 ISZERO PUSH2 0x2B8 JUMPI PUSH1 0x0 DUP1 REVERT JUMPDEST POP PUSH2 0x2C1 PUSH1 0x12 DUP2 JUMP JUMPDEST PUSH1 0x40 MLOAD SWAP1 DUP2 MSTORE PUSH1 0x20 ADD PUSH2 0x2A3 JUMP JUMPDEST CALLVALUE DUP1 ISZERO PUSH2 0x2DB JUMPI PUSH1 0x0 DUP1 REVERT JUMPDEST POP PUSH2 0x2C1 PUSH1 0xE SLOAD DUP2 JUMP JUMPDEST CALLVALUE DUP1 ISZERO PUSH2 0x2F1 JUMPI PUSH1 0x0 DUP1 REVERT JUMPDEST POP PUSH2 0x2FA PUSH2 0x7DB JUMP JUMPDEST STOP JUMPDEST CALLVALUE DUP1 ISZERO PUSH2 0x308 JUMPI PUSH1 0x0 DUP1 REVERT JUMPDEST POP PUSH2 0x2FA PUSH2 0x317 CALLDATASIZE PUSH1 0x4 PUSH2 0x1CFF JUMP JUMPDEST PUSH2 0x81D JUMP JUMPDEST CALLVALUE DUP1 ISZERO PUSH2 0x328 JUMPI PUSH1 0x0 DUP1 REVERT JUMPDEST POP PUSH2 0x331 PUSH2 0x830 JUMP JUMPDEST PUSH1 0x40 MLOAD PUSH2 0x2A3 SWAP2 SWAP1 PUSH2 0x1D71 JUMP JUMPDEST CALLVALUE DUP1 ISZERO PUSH2 0x34A JUMPI PUSH1 0x0 DUP1 REVERT JUMPDEST POP PUSH2 0x35E PUSH2 0x359 CALLDATASIZE PUSH1 0x4 PUSH2 0x1D84 JUMP JUMPDEST PUSH2 0x8C2 JUMP JUMPDEST PUSH1 0x40 MLOAD PUSH1 0x1 PUSH1 0x1 PUSH1 0xA0 SHL SUB SWAP1 SWAP2 AND DUP2 MSTORE PUSH1 0x20 ADD PUSH2 0x2A3 JUMP JUMPDEST CALLVALUE DUP1 ISZERO PUSH2 0x382 JUMPI PUSH1 0x0 DUP1 REVERT JUMPDEST POP PUSH2 0x2FA PUSH2 0x391 CALLDATASIZE PUSH1 0x4 PUSH2 0x1DB9 JUMP JUMPDEST PUSH2 0x8EB JUMP JUMPDEST CALLVALUE DUP1 ISZERO PUSH2 0x3A2 JUMPI PUSH1 0x0 DUP1 REVERT JUMPDEST POP PUSH1 0x8 SLOAD PUSH2 0x2C1 JUMP JUMPDEST CALLVALUE DUP1 ISZERO PUSH2 0x3B7 JUMPI PUSH1 0x0 DUP1 REVERT JUMPDEST POP PUSH2 0x2C1 PUSH1 0x3 DUP2 JUMP JUMPDEST CALLVALUE DUP1 ISZERO PUSH2 0x3CC JUMPI PUSH1 0x0 DUP1 REVERT JUMPDEST POP PUSH1 0xD SLOAD PUSH1 0xE SLOAD PUSH1 0xF SLOAD PUSH1 0x10 SLOAD PUSH1 0x40 DUP1 MLOAD PUSH1 0x12 DUP1 DUP3 MSTORE PUSH1 0x15 PUSH1 0x20 DUP4 ADD MSTORE SWAP2 DUP2 ADD SWAP2 SWAP1 SWAP2 MSTORE PUSH1 0x3 PUSH1 0x60 DUP3 ADD MSTORE PUSH1 0x80 DUP2 ADD SWAP5 SWAP1 SWAP5 MSTORE PUSH1 0xA0 DUP5 ADD SWAP3 SWAP1 SWAP3 MSTORE PUSH1 0xC0 DUP4 ADD MSTORE PUSH1 0xE0 DUP3 ADD MSTORE PUSH2 0x100 ADD PUSH2 0x2A3 JUMP JUMPDEST CALLVALUE DUP1 ISZERO PUSH2 0x426 JUMPI PUSH1 0x0 DUP1 REVERT JUMPDEST POP PUSH2 0x2FA PUSH2 0x435 CALLDATASIZE PUSH1 0x4 PUSH2 0x1DE3 JUMP JUMPDEST PUSH2 0x8FA JUMP JUMPDEST CALLVALUE DUP1 ISZERO PUSH2 0x446 JUMPI PUSH1 0x0 DUP1 REVERT JUMPDEST POP PUSH2 0x2C1 PUSH1 0x10 SLOAD DUP2 JUMP JUMPDEST CALLVALUE DUP1 ISZERO PUSH2 0x45C JUMPI PUSH1 0x0 DUP1 REVERT JUMPDEST POP PUSH2 0x2FA PUSH2 0x46B CALLDATASIZE PUSH1 0x4 PUSH2 0x1E1F JUMP JUMPDEST PUSH2 0x98A JUMP JUMPDEST CALLVALUE DUP1 ISZERO PUSH2 0x47C JUMPI PUSH1 0x0 DUP1 REVERT JUMPDEST POP PUSH2 0x2C1 PUSH2 0x48B CALLDATASIZE PUSH1 0x4 PUSH2 0x1DB9 JUMP JUMPDEST PUSH2 0xA9D JUMP JUMPDEST CALLVALUE DUP1 ISZERO PUSH2 0x49C JUMPI PUSH1 0x0 DUP1 REVERT JUMPDEST POP PUSH2 0x2C1 PUSH1 0xD SLOAD DUP2 JUMP JUMPDEST CALLVALUE DUP1 ISZERO PUSH2 0x4B2 JUMPI PUSH1 0x0 DUP1 REVERT JUMPDEST POP PUSH2 0x2FA PUSH2 0xB02 JUMP JUMPDEST PUSH2 0x2FA PUSH2 0x4C9 CALLDATASIZE PUSH1 0x4 PUSH2 0x1D84 JUMP JUMPDEST PUSH2 0xB46 JUMP JUMPDEST CALLVALUE DUP1 ISZERO PUSH2 0x4DA JUMPI PUSH1 0x0 DUP1 REVERT JUMPDEST POP PUSH2 0x2FA PUSH2 0x4E9 CALLDATASIZE PUSH1 0x4 PUSH2 0x1DE3 JUMP JUMPDEST PUSH2 0xD28 JUMP JUMPDEST CALLVALUE DUP1 ISZERO PUSH2 0x4FA JUMPI PUSH1 0x0 DUP1 REVERT JUMPDEST POP PUSH2 0x2C1 PUSH2 0x509 CALLDATASIZE PUSH1 0x4 PUSH2 0x1D84 JUMP JUMPDEST PUSH2 0xD43 JUMP JUMPDEST CALLVALUE DUP1 ISZERO PUSH2 0x51A JUMPI PUSH1 0x0 DUP1 REVERT JUMPDEST POP PUSH2 0x52E PUSH2 0x529 CALLDATASIZE PUSH1 0x4 PUSH2 0x1D84 JUMP JUMPDEST PUSH2 0xD9C JUMP JUMPDEST PUSH1 0x40 MLOAD PUSH2 0x2A3 SWAP2 SWAP1 PUSH2 0x1E3A JUMP JUMPDEST CALLVALUE DUP1 ISZERO PUSH2 0x547 JUMPI PUSH1 0x0 DUP1 REVERT JUMPDEST POP PUSH2 0x2FA PUSH2 0x556 CALLDATASIZE PUSH1 0x4 PUSH2 0x1EEE JUMP JUMPDEST PUSH2 0xDE6 JUMP JUMPDEST CALLVALUE DUP1 ISZERO PUSH2 0x567 JUMPI PUSH1 0x0 DUP1 REVERT JUMPDEST POP PUSH2 0x35E PUSH2 0x576 CALLDATASIZE PUSH1 0x4 PUSH2 0x1D84 JUMP JUMPDEST PUSH2 0xDFA JUMP JUMPDEST CALLVALUE DUP1 ISZERO PUSH2 0x587 JUMPI PUSH1 0x0 DUP1 REVERT JUMPDEST POP PUSH2 0x297 PUSH2 0x596 CALLDATASIZE PUSH1 0x4 PUSH2 0x1D84 JUMP JUMPDEST PUSH2 0xE05 JUMP JUMPDEST CALLVALUE DUP1 ISZERO PUSH2 0x5A7 JUMPI PUSH1 0x0 DUP1 REVERT JUMPDEST POP PUSH2 0x2C1 PUSH2 0x5B6 CALLDATASIZE PUSH1 0x4 PUSH2 0x1E1F JUMP JUMPDEST PUSH2 0xE4F JUMP JUMPDEST CALLVALUE DUP1 ISZERO PUSH2 0x5C7 JUMPI PUSH1 0x0 DUP1 REVERT JUMPDEST POP PUSH2 0x2FA PUSH2 0xE97 JUMP JUMPDEST CALLVALUE DUP1 ISZERO PUSH2 0x5DC JUMPI PUSH1 0x0 DUP1 REVERT JUMPDEST POP PUSH1 0xA SLOAD PUSH1 0x1 PUSH1 0x1 PUSH1 0xA0 SHL SUB AND PUSH2 0x35E JUMP JUMPDEST CALLVALUE DUP1 ISZERO PUSH2 0x5FA JUMPI PUSH1 0x0 DUP1 REVERT JUMPDEST POP PUSH2 0x331 PUSH2 0xEAB JUMP JUMPDEST CALLVALUE DUP1 ISZERO PUSH2 0x60F JUMPI PUSH1 0x0 DUP1 REVERT JUMPDEST POP PUSH2 0x2C1 PUSH1 0x2A DUP2 JUMP JUMPDEST CALLVALUE DUP1 ISZERO PUSH2 0x624 JUMPI PUSH1 0x0 DUP1 REVERT JUMPDEST POP PUSH2 0x2FA PUSH2 0x633 CALLDATASIZE PUSH1 0x4 PUSH2 0x1E1F JUMP JUMPDEST PUSH2 0xEBA JUMP JUMPDEST CALLVALUE DUP1 ISZERO PUSH2 0x644 JUMPI PUSH1 0x0 DUP1 REVERT JUMPDEST POP PUSH2 0x2FA PUSH2 0x653 CALLDATASIZE PUSH1 0x4 PUSH2 0x1F37 JUMP JUMPDEST PUSH2 0xFC1 JUMP JUMPDEST PUSH2 0x2FA PUSH2 0x666 CALLDATASIZE PUSH1 0x4 PUSH2 0x1D84 JUMP JUMPDEST PUSH2 0xFCC JUMP JUMPDEST CALLVALUE DUP1 ISZERO PUSH2 0x677 JUMPI PUSH1 0x0 DUP1 REVERT JUMPDEST POP PUSH2 0x2FA PUSH2 0x686 CALLDATASIZE PUSH1 0x4 PUSH2 0x1F73 JUMP JUMPDEST PUSH2 0x1172 JUMP JUMPDEST CALLVALUE DUP1 ISZERO PUSH2 0x697 JUMPI PUSH1 0x0 DUP1 REVERT JUMPDEST POP PUSH2 0x331 PUSH2 0x6A6 CALLDATASIZE PUSH1 0x4 PUSH2 0x1D84 JUMP JUMPDEST PUSH2 0x118A JUMP JUMPDEST CALLVALUE DUP1 ISZERO PUSH2 0x6B7 JUMPI PUSH1 0x0 DUP1 REVERT JUMPDEST POP PUSH2 0x2FA PUSH2 0x11F2 JUMP JUMPDEST CALLVALUE DUP1 ISZERO PUSH2 0x6CC JUMPI PUSH1 0x0 DUP1 REVERT JUMPDEST POP PUSH2 0x297 PUSH2 0x6DB CALLDATASIZE PUSH1 0x4 PUSH2 0x1D84 JUMP JUMPDEST PUSH2 0x120E JUMP JUMPDEST CALLVALUE DUP1 ISZERO PUSH2 0x6EC JUMPI PUSH1 0x0 DUP1 REVERT JUMPDEST POP PUSH2 0x297 PUSH2 0x6FB CALLDATASIZE PUSH1 0x4 PUSH2 0x1FEF JUMP JUMPDEST PUSH2 0x1258 JUMP JUMPDEST CALLVALUE DUP1 ISZERO PUSH2 0x70C JUMPI PUSH1 0x0 DUP1 REVERT JUMPDEST POP PUSH1 0x11 SLOAD PUSH2 0x297 SWAP1 PUSH1 0xFF AND DUP2 JUMP JUMPDEST CALLVALUE DUP1 ISZERO PUSH2 0x726 JUMPI PUSH1 0x0 DUP1 REVERT JUMPDEST POP PUSH2 0x2C1 PUSH1 0xB SLOAD DUP2 JUMP JUMPDEST CALLVALUE DUP1 ISZERO PUSH2 0x73C JUMPI PUSH1 0x0 DUP1 REVERT JUMPDEST POP PUSH2 0x2C1 PUSH1 0x15 DUP2 JUMP JUMPDEST CALLVALUE DUP1 ISZERO PUSH2 0x751 JUMPI PUSH1 0x0 DUP1 REVERT JUMPDEST POP PUSH2 0x2FA PUSH2 0x760 CALLDATASIZE PUSH1 0x4 PUSH2 0x1E1F JUMP JUMPDEST PUSH2 0x1286 JUMP JUMPDEST CALLVALUE DUP1 ISZERO PUSH2 0x771 JUMPI PUSH1 0x0 DUP1 REVERT JUMPDEST POP PUSH1 0x11 SLOAD PUSH2 0x297 SWAP1 PUSH2 0x100 SWAP1 DIV PUSH1 0xFF AND DUP2 JUMP JUMPDEST CALLVALUE DUP1 ISZERO PUSH2 0x790 JUMPI PUSH1 0x0 DUP1 REVERT JUMPDEST POP PUSH2 0x2C1 PUSH1 0xF SLOAD DUP2 JUMP JUMPDEST CALLVALUE DUP1 ISZERO PUSH2 0x7A6 JUMPI PUSH1 0x0 DUP1 REVERT JUMPDEST POP PUSH2 0x2C1 PUSH1 0xC SLOAD DUP2 JUMP JUMPDEST PUSH1 0x0 PUSH1 0x1 PUSH1 0x1 PUSH1 0xE0 SHL SUB NOT DUP3 AND PUSH4 0x780E9D63 PUSH1 0xE0 SHL EQ DUP1 PUSH2 0x7D5 JUMPI POP PUSH2 0x7D5 DUP3 PUSH2 0x12C1 JUMP JUMPDEST SWAP3 SWAP2 POP POP JUMP JUMPDEST PUSH2 0x7E3 PUSH2 0x1311 JUMP JUMPDEST PUSH1 0x11 DUP1 SLOAD PUSH2 0xFF00 NOT AND PUSH2 0x100 OR SWAP1 SSTORE PUSH1 0x40 MLOAD PUSH32 0x4751E9A03F84A3C9B35B69492E73C3B8AD1F2DEAC21A6AE8A86C130195FF9A53 SWAP1 PUSH1 0x0 SWAP1 LOG1 JUMP JUMPDEST PUSH2 0x825 PUSH2 0x1311 JUMP JUMPDEST PUSH1 0xB SWAP2 SWAP1 SWAP2 SSTORE PUSH1 0xC SSTORE JUMP JUMPDEST PUSH1 0x60 PUSH1 0x0 DUP1 SLOAD PUSH2 0x83F SWAP1 PUSH2 0x2022 JUMP JUMPDEST DUP1 PUSH1 0x1F ADD PUSH1 0x20 DUP1 SWAP2 DIV MUL PUSH1 0x20 ADD PUSH1 0x40 MLOAD SWAP1 DUP2 ADD PUSH1 0x40 MSTORE DUP1 SWAP3 SWAP2 SWAP1 DUP2 DUP2 MSTORE PUSH1 0x20 ADD DUP3 DUP1 SLOAD PUSH2 0x86B SWAP1 PUSH2 0x2022 JUMP JUMPDEST DUP1 ISZERO PUSH2 0x8B8 JUMPI DUP1 PUSH1 0x1F LT PUSH2 0x88D JUMPI PUSH2 0x100 DUP1 DUP4 SLOAD DIV MUL DUP4 MSTORE SWAP2 PUSH1 0x20 ADD SWAP2 PUSH2 0x8B8 JUMP JUMPDEST DUP3 ADD SWAP2 SWAP1 PUSH1 0x0 MSTORE PUSH1 0x20 PUSH1 0x0 KECCAK256 SWAP1 JUMPDEST DUP2 SLOAD DUP2 MSTORE SWAP1 PUSH1 0x1 ADD SWAP1 PUSH1 0x20 ADD DUP1 DUP4 GT PUSH2 0x89B JUMPI DUP3 SWAP1 SUB PUSH1 0x1F AND DUP3 ADD SWAP2 JUMPDEST POP POP POP POP POP SWAP1 POP SWAP1 JUMP JUMPDEST PUSH1 0x0 PUSH2 0x8CD DUP3 PUSH2 0x133E JUMP JUMPDEST POP PUSH1 0x0 DUP3 DUP2 MSTORE PUSH1 0x4 PUSH1 0x20 MSTORE PUSH1 0x40 SWAP1 KECCAK256 SLOAD PUSH1 0x1 PUSH1 0x1 PUSH1 0xA0 SHL SUB AND PUSH2 0x7D5 JUMP JUMPDEST PUSH2 0x8F6 DUP3 DUP3 CALLER PUSH2 0x1377 JUMP JUMPDEST POP POP JUMP JUMPDEST PUSH1 0x1 PUSH1 0x1 PUSH1 0xA0 SHL SUB DUP3 AND PUSH2 0x929 JUMPI PUSH1 0x40 MLOAD PUSH4 0x32505749 PUSH1 0xE1 SHL DUP2 MSTORE PUSH1 0x0 PUSH1 0x4 DUP3 ADD MSTORE PUSH1 0x24 ADD JUMPDEST PUSH1 0x40 MLOAD DUP1 SWAP2 SUB SWAP1 REVERT JUMPDEST PUSH1 0x0 PUSH2 0x936 DUP4 DUP4 CALLER PUSH2 0x1384 JUMP JUMPDEST SWAP1 POP DUP4 PUSH1 0x1 PUSH1 0x1 PUSH1 0xA0 SHL SUB AND DUP2 PUSH1 0x1 PUSH1 0x1 PUSH1 0xA0 SHL SUB AND EQ PUSH2 0x984 JUMPI PUSH1 0x40 MLOAD PUSH4 0x64283D7B PUSH1 0xE0 SHL DUP2 MSTORE PUSH1 0x1 PUSH1 0x1 PUSH1 0xA0 SHL SUB DUP1 DUP7 AND PUSH1 0x4 DUP4 ADD MSTORE PUSH1 0x24 DUP3 ADD DUP5 SWAP1 MSTORE DUP3 AND PUSH1 0x44 DUP3 ADD MSTORE PUSH1 0x64 ADD PUSH2 0x920 JUMP JUMPDEST POP POP POP POP JUMP JUMPDEST PUSH2 0x992 PUSH2 0x1311 JUMP JUMPDEST PUSH1 0x12 PUSH1 0xF SLOAD LT PUSH2 0x9E4 JUMPI PUSH1 0x40 MLOAD PUSH3 0x461BCD PUSH1 0xE5 SHL DUP2 MSTORE PUSH1 0x20 PUSH1 0x4 DUP3 ADD MSTORE PUSH1 0x1A PUSH1 0x24 DUP3 ADD MSTORE PUSH32 0x416C6C20726566657272616C20736861726473206D696E746564000000000000 PUSH1 0x44 DUP3 ADD MSTORE PUSH1 0x64 ADD PUSH2 0x920 JUMP JUMPDEST PUSH1 0x0 PUSH2 0x9EF PUSH1 0x8 SLOAD SWAP1 JUMP JUMPDEST PUSH2 0x9FA SWAP1 PUSH1 0x1 PUSH2 0x2072 JUMP JUMPDEST SWAP1 POP PUSH1 0x1 PUSH1 0xF PUSH1 0x0 DUP3 DUP3 SLOAD PUSH2 0xA0F SWAP2 SWAP1 PUSH2 0x2072 JUMP JUMPDEST SWAP1 SWAP2 SSTORE POP POP PUSH1 0x0 DUP2 DUP2 MSTORE PUSH1 0x12 PUSH1 0x20 MSTORE PUSH1 0x40 SWAP1 KECCAK256 DUP1 SLOAD PUSH1 0x1 SWAP2 SWAP1 PUSH1 0xFF NOT AND DUP3 DUP1 MUL OR SWAP1 SSTORE POP PUSH1 0x0 DUP2 DUP2 MSTORE PUSH1 0x13 PUSH1 0x20 MSTORE PUSH1 0x40 SWAP1 KECCAK256 DUP1 SLOAD PUSH1 0xFF NOT AND PUSH1 0x1 OR SWAP1 SSTORE PUSH2 0xA56 DUP3 DUP3 PUSH2 0x1459 JUMP JUMPDEST DUP2 PUSH1 0x1 PUSH1 0x1 PUSH1 0xA0 SHL SUB AND PUSH32 0xD5F90F9282064B00C7597C500D4493D01D5F8D5057FC37C3C9CF810ADAC050C0 DUP3 PUSH1 0x40 MLOAD PUSH2 0xA91 SWAP2 DUP2 MSTORE PUSH1 0x20 ADD SWAP1 JUMP JUMPDEST PUSH1 0x40 MLOAD DUP1 SWAP2 SUB SWAP1 LOG2 POP POP JUMP JUMPDEST PUSH1 0x0 PUSH2 0xAA8 DUP4 PUSH2 0xE4F JUMP JUMPDEST DUP3 LT PUSH2 0xAD9 JUMPI PUSH1 0x40 MLOAD PUSH4 0x295F44F7 PUSH1 0xE2 SHL DUP2 MSTORE PUSH1 0x1 PUSH1 0x1 PUSH1 0xA0 SHL SUB DUP5 AND PUSH1 0x4 DUP3 ADD MSTORE PUSH1 0x24 DUP2 ADD DUP4 SWAP1 MSTORE PUSH1 0x44 ADD PUSH2 0x920 JUMP JUMPDEST POP PUSH1 0x1 PUSH1 0x1 PUSH1 0xA0 SHL SUB SWAP2 SWAP1 SWAP2 AND PUSH1 0x0 SWAP1 DUP2 MSTORE PUSH1 0x6 PUSH1 0x20 SWAP1 DUP2 MSTORE PUSH1 0x40 DUP1 DUP4 KECCAK256 SWAP4 DUP4 MSTORE SWAP3 SWAP1 MSTORE KECCAK256 SLOAD SWAP1 JUMP JUMPDEST PUSH2 0xB0A PUSH2 0x1311 JUMP JUMPDEST PUSH1 0xA SLOAD PUSH1 0x40 MLOAD PUSH1 0x1 PUSH1 0x1 PUSH1 0xA0 SHL SUB SWAP1 SWAP2 AND SWAP1 SELFBALANCE DUP1 ISZERO PUSH2 0x8FC MUL SWAP2 PUSH1 0x0 DUP2 DUP2 DUP2 DUP6 DUP9 DUP9 CALL SWAP4 POP POP POP POP ISZERO DUP1 ISZERO PUSH2 0xB43 JUMPI RETURNDATASIZE PUSH1 0x0 DUP1 RETURNDATACOPY RETURNDATASIZE PUSH1 0x0 REVERT JUMPDEST POP JUMP JUMPDEST PUSH1 0x11 SLOAD PUSH1 0xFF AND PUSH2 0xB8D JUMPI PUSH1 0x40 MLOAD PUSH3 0x461BCD PUSH1 0xE5 SHL DUP2 MSTORE PUSH1 0x20 PUSH1 0x4 DUP3 ADD MSTORE PUSH1 0x12 PUSH1 0x24 DUP3 ADD MSTORE PUSH18 0x53616C65206973206E6F7420616374697665 PUSH1 0x70 SHL PUSH1 0x44 DUP3 ADD MSTORE PUSH1 0x64 ADD PUSH2 0x920 JUMP JUMPDEST PUSH1 0x0 DUP2 GT PUSH2 0xBD9 JUMPI PUSH1 0x40 MLOAD PUSH3 0x461BCD PUSH1 0xE5 SHL DUP2 MSTORE PUSH1 0x20 PUSH1 0x4 DUP3 ADD MSTORE PUSH1 0x19 PUSH1 0x24 DUP3 ADD MSTORE PUSH25 0x5175616E74697479206D75737420626520706F736974697665 PUSH1 0x38 SHL PUSH1 0x44 DUP3 ADD MSTORE PUSH1 0x64 ADD PUSH2 0x920 JUMP JUMPDEST PUSH1 0x11 SLOAD PUSH1 0x0 SWAP1 PUSH2 0x100 SWAP1 DIV PUSH1 0xFF AND PUSH2 0xBF2 JUMPI PUSH1 0x0 PUSH2 0xC00 JUMP JUMPDEST PUSH1 0xF SLOAD PUSH2 0xC00 SWAP1 PUSH1 0x12 PUSH2 0x2085 JUMP JUMPDEST PUSH2 0xC0B SWAP1 PUSH1 0x15 PUSH2 0x2072 JUMP JUMPDEST SWAP1 POP DUP1 DUP3 PUSH1 0xE SLOAD PUSH2 0xC1C SWAP2 SWAP1 PUSH2 0x2072 JUMP JUMPDEST GT ISZERO PUSH2 0xC61 JUMPI PUSH1 0x40 MLOAD PUSH3 0x461BCD PUSH1 0xE5 SHL DUP2 MSTORE PUSH1 0x20 PUSH1 0x4 DUP3 ADD MSTORE PUSH1 0x14 PUSH1 0x24 DUP3 ADD MSTORE PUSH20 0x4578636565647320736861726420737570706C79 PUSH1 0x60 SHL PUSH1 0x44 DUP3 ADD MSTORE PUSH1 0x64 ADD PUSH2 0x920 JUMP JUMPDEST DUP2 PUSH1 0xC SLOAD PUSH2 0xC6F SWAP2 SWAP1 PUSH2 0x2098 JUMP JUMPDEST CALLVALUE EQ PUSH2 0xCB2 JUMPI PUSH1 0x40 MLOAD PUSH3 0x461BCD PUSH1 0xE5 SHL DUP2 MSTORE PUSH1 0x20 PUSH1 0x4 DUP3 ADD MSTORE PUSH1 0x12 PUSH1 0x24 DUP3 ADD MSTORE PUSH18 0x125B98DBDC9C9958DD08115512081CD95B9D PUSH1 0x72 SHL PUSH1 0x44 DUP3 ADD MSTORE PUSH1 0x64 ADD PUSH2 0x920 JUMP JUMPDEST PUSH1 0x0 JUMPDEST DUP3 DUP2 LT ISZERO PUSH2 0xD23 JUMPI PUSH1 0x0 PUSH2 0xCC8 PUSH1 0x8 SLOAD SWAP1 JUMP JUMPDEST PUSH2 0xCD3 SWAP1 PUSH1 0x1 PUSH2 0x2072 JUMP JUMPDEST SWAP1 POP PUSH1 0x1 PUSH1 0xE PUSH1 0x0 DUP3 DUP3 SLOAD PUSH2 0xCE8 SWAP2 SWAP1 PUSH2 0x2072 JUMP JUMPDEST SWAP1 SWAP2 SSTORE POP POP PUSH1 0x0 DUP2 DUP2 MSTORE PUSH1 0x12 PUSH1 0x20 MSTORE PUSH1 0x40 SWAP1 KECCAK256 DUP1 SLOAD PUSH1 0xFF NOT AND PUSH1 0x1 OR SWAP1 SSTORE PUSH2 0xD10 CALLER DUP3 PUSH2 0x1459 JUMP JUMPDEST POP DUP1 PUSH2 0xD1B DUP2 PUSH2 0x20AF JUMP JUMPDEST SWAP2 POP POP PUSH2 0xCB5 JUMP JUMPDEST POP POP POP JUMP JUMPDEST PUSH2 0xD23 DUP4 DUP4 DUP4 PUSH1 0x40 MLOAD DUP1 PUSH1 0x20 ADD PUSH1 0x40 MSTORE DUP1 PUSH1 0x0 DUP2 MSTORE POP PUSH2 0x1172 JUMP JUMPDEST PUSH1 0x0 PUSH2 0xD4E PUSH1 0x8 SLOAD SWAP1 JUMP JUMPDEST DUP3 LT PUSH2 0xD77 JUMPI PUSH1 0x40 MLOAD PUSH4 0x295F44F7 PUSH1 0xE2 SHL DUP2 MSTORE PUSH1 0x0 PUSH1 0x4 DUP3 ADD MSTORE PUSH1 0x24 DUP2 ADD DUP4 SWAP1 MSTORE PUSH1 0x44 ADD PUSH2 0x920 JUMP JUMPDEST PUSH1 0x8 DUP3 DUP2 SLOAD DUP2 LT PUSH2 0xD8A JUMPI PUSH2 0xD8A PUSH2 0x20C8 JUMP JUMPDEST SWAP1 PUSH1 0x0 MSTORE PUSH1 0x20 PUSH1 0x0 KECCAK256 ADD SLOAD SWAP1 POP SWAP2 SWAP1 POP JUMP JUMPDEST PUSH1 0x0 DUP2 DUP2 MSTORE PUSH1 0x2 PUSH1 0x20 MSTORE PUSH1 0x40 DUP2 KECCAK256 SLOAD PUSH1 0x1 PUSH1 0x1 PUSH1 0xA0 SHL SUB AND PUSH2 0xDD0 JUMPI PUSH1 0x40 MLOAD PUSH3 0x461BCD PUSH1 0xE5 SHL DUP2 MSTORE PUSH1 0x4 ADD PUSH2 0x920 SWAP1 PUSH2 0x20DE JUMP JUMPDEST POP PUSH1 0x0 SWAP1 DUP2 MSTORE PUSH1 0x12 PUSH1 0x20 MSTORE PUSH1 0x40 SWAP1 KECCAK256 SLOAD PUSH1 0xFF AND SWAP1 JUMP JUMPDEST PUSH2 0xDEE PUSH2 0x1311 JUMP JUMPDEST PUSH1 0x15 PUSH2 0x8F6 DUP3 DUP3 PUSH2 0x2152 JUMP JUMPDEST PUSH1 0x0 PUSH2 0x7D5 DUP3 PUSH2 0x133E JUMP JUMPDEST PUSH1 0x0 DUP2 DUP2 MSTORE PUSH1 0x2 PUSH1 0x20 MSTORE PUSH1 0x40 DUP2 KECCAK256 SLOAD PUSH1 0x1 PUSH1 0x1 PUSH1 0xA0 SHL SUB AND PUSH2 0xE39 JUMPI PUSH1 0x40 MLOAD PUSH3 0x461BCD PUSH1 0xE5 SHL DUP2 MSTORE PUSH1 0x4 ADD PUSH2 0x920 SWAP1 PUSH2 0x20DE JUMP JUMPDEST POP PUSH1 0x0 SWAP1 DUP2 MSTORE PUSH1 0x14 PUSH1 0x20 MSTORE PUSH1 0x40 SWAP1 KECCAK256 SLOAD PUSH1 0xFF AND SWAP1 JUMP JUMPDEST PUSH1 0x0 PUSH1 0x1 PUSH1 0x1 PUSH1 0xA0 SHL SUB DUP3 AND PUSH2 0xE7B JUMPI PUSH1 0x40 MLOAD PUSH4 0x22718AD9 PUSH1 0xE2 SHL DUP2 MSTORE PUSH1 0x0 PUSH1 0x4 DUP3 ADD MSTORE PUSH1 0x24 ADD PUSH2 0x920 JUMP JUMPDEST POP PUSH1 0x1 PUSH1 0x1 PUSH1 0xA0 SHL SUB AND PUSH1 0x0 SWAP1 DUP2 MSTORE PUSH1 0x3 PUSH1 0x20 MSTORE PUSH1 0x40 SWAP1 KECCAK256 SLOAD SWAP1 JUMP JUMPDEST PUSH2 0xE9F PUSH2 0x1311 JUMP JUMPDEST PUSH2 0xEA9 PUSH1 0x0 PUSH2 0x1473 JUMP JUMPDEST JUMP JUMPDEST PUSH1 0x60 PUSH1 0x1 DUP1 SLOAD PUSH2 0x83F SWAP1 PUSH2 0x2022 JUMP JUMPDEST PUSH2 0xEC2 PUSH2 0x1311 JUMP JUMPDEST PUSH1 0x3 PUSH1 0x10 SLOAD LT PUSH2 0xF14 JUMPI PUSH1 0x40 MLOAD PUSH3 0x461BCD PUSH1 0xE5 SHL DUP2 MSTORE PUSH1 0x20 PUSH1 0x4 DUP3 ADD MSTORE PUSH1 0x1B PUSH1 0x24 DUP3 ADD MSTORE PUSH32 0x416C6C20636F6D6D756E69747920736861726473206D696E7465640000000000 PUSH1 0x44 DUP3 ADD MSTORE PUSH1 0x64 ADD PUSH2 0x920 JUMP JUMPDEST PUSH1 0x0 PUSH2 0xF1F PUSH1 0x8 SLOAD SWAP1 JUMP JUMPDEST PUSH2 0xF2A SWAP1 PUSH1 0x1 PUSH2 0x2072 JUMP JUMPDEST SWAP1 POP PUSH1 0x1 PUSH1 0x10 PUSH1 0x0 DUP3 DUP3 SLOAD PUSH2 0xF3F SWAP2 SWAP1 PUSH2 0x2072 JUMP JUMPDEST SWAP1 SWAP2 SSTORE POP POP PUSH1 0x0 DUP2 DUP2 MSTORE PUSH1 0x12 PUSH1 0x20 MSTORE PUSH1 0x40 SWAP1 KECCAK256 DUP1 SLOAD PUSH1 0x1 SWAP2 SWAP1 PUSH1 0xFF NOT AND DUP3 DUP1 MUL OR SWAP1 SSTORE POP PUSH1 0x0 DUP2 DUP2 MSTORE PUSH1 0x14 PUSH1 0x20 MSTORE PUSH1 0x40 SWAP1 KECCAK256 DUP1 SLOAD PUSH1 0xFF NOT AND PUSH1 0x1 OR SWAP1 SSTORE PUSH2 0xF86 DUP3 DUP3 PUSH2 0x1459 JUMP JUMPDEST DUP2 PUSH1 0x1 PUSH1 0x1 PUSH1 0xA0 SHL SUB AND PUSH32 0xB34CBF521EE0761BA45167FD002205A42201084C06BF6E6E52338E471267BABA DUP3 PUSH1 0x40 MLOAD PUSH2 0xA91 SWAP2 DUP2 MSTORE PUSH1 0x20 ADD SWAP1 JUMP JUMPDEST PUSH2 0x8F6 CALLER DUP4 DUP4 PUSH2 0x14C5 JUMP JUMPDEST PUSH1 0x11 SLOAD PUSH1 0xFF AND PUSH2 0x1013 JUMPI PUSH1 0x40 MLOAD PUSH3 0x461BCD PUSH1 0xE5 SHL DUP2 MSTORE PUSH1 0x20 PUSH1 0x4 DUP3 ADD MSTORE PUSH1 0x12 PUSH1 0x24 DUP3 ADD MSTORE PUSH18 0x53616C65206973206E6F7420616374697665 PUSH1 0x70 SHL PUSH1 0x44 DUP3 ADD MSTORE PUSH1 0x64 ADD PUSH2 0x920 JUMP JUMPDEST PUSH1 0x0 DUP2 GT PUSH2 0x105F JUMPI PUSH1 0x40 MLOAD PUSH3 0x461BCD PUSH1 0xE5 SHL DUP2 MSTORE PUSH1 0x20 PUSH1 0x4 DUP3 ADD MSTORE PUSH1 0x19 PUSH1 0x24 DUP3 ADD MSTORE PUSH25 0x5175616E74697479206D75737420626520706F736974697665 PUSH1 0x38 SHL PUSH1 0x44 DUP3 ADD MSTORE PUSH1 0x64 ADD PUSH2 0x920 JUMP JUMPDEST PUSH1 0x12 DUP2 PUSH1 0xD SLOAD PUSH2 0x106F SWAP2 SWAP1 PUSH2 0x2072 JUMP JUMPDEST GT ISZERO PUSH2 0x10B3 JUMPI PUSH1 0x40 MLOAD PUSH3 0x461BCD PUSH1 0xE5 SHL DUP2 MSTORE PUSH1 0x20 PUSH1 0x4 DUP3 ADD MSTORE PUSH1 0x13 PUSH1 0x24 DUP3 ADD MSTORE PUSH19 0x457863656564732066756C6C20737570706C79 PUSH1 0x68 SHL PUSH1 0x44 DUP3 ADD MSTORE PUSH1 0x64 ADD PUSH2 0x920 JUMP JUMPDEST DUP1 PUSH1 0xB SLOAD PUSH2 0x10C1 SWAP2 SWAP1 PUSH2 0x2098 JUMP JUMPDEST CALLVALUE EQ PUSH2 0x1104 JUMPI PUSH1 0x40 MLOAD PUSH3 0x461BCD PUSH1 0xE5 SHL DUP2 MSTORE PUSH1 0x20 PUSH1 0x4 DUP3 ADD MSTORE PUSH1 0x12 PUSH1 0x24 DUP3 ADD MSTORE PUSH18 0x125B98DBDC9C9958DD08115512081CD95B9D PUSH1 0x72 SHL PUSH1 0x44 DUP3 ADD MSTORE PUSH1 0x64 ADD PUSH2 0x920 JUMP JUMPDEST PUSH1 0x0 JUMPDEST DUP2 DUP2 LT ISZERO PUSH2 0x8F6 JUMPI PUSH1 0x0 PUSH2 0x111A PUSH1 0x8 SLOAD SWAP1 JUMP JUMPDEST PUSH2 0x1125 SWAP1 PUSH1 0x1 PUSH2 0x2072 JUMP JUMPDEST SWAP1 POP PUSH1 0x1 PUSH1 0xD PUSH1 0x0 DUP3 DUP3 SLOAD PUSH2 0x113A SWAP2 SWAP1 PUSH2 0x2072 JUMP JUMPDEST SWAP1 SWAP2 SSTORE POP POP PUSH1 0x0 DUP2 DUP2 MSTORE PUSH1 0x12 PUSH1 0x20 MSTORE PUSH1 0x40 SWAP1 KECCAK256 DUP1 SLOAD PUSH1 0xFF NOT AND SWAP1 SSTORE PUSH2 0x115F CALLER DUP3 PUSH2 0x1459 JUMP JUMPDEST POP DUP1 PUSH2 0x116A DUP2 PUSH2 0x20AF JUMP JUMPDEST SWAP2 POP POP PUSH2 0x1107 JUMP JUMPDEST PUSH2 0x117D DUP5 DUP5 DUP5 PUSH2 0x8FA JUMP JUMPDEST PUSH2 0x984 CALLER DUP6 DUP6 DUP6 DUP6 PUSH2 0x1564 JUMP JUMPDEST PUSH1 0x60 PUSH2 0x1195 DUP3 PUSH2 0x133E JUMP JUMPDEST POP PUSH1 0x0 PUSH2 0x11A0 PUSH2 0x168F JUMP JUMPDEST SWAP1 POP PUSH1 0x0 DUP2 MLOAD GT PUSH2 0x11C0 JUMPI PUSH1 0x40 MLOAD DUP1 PUSH1 0x20 ADD PUSH1 0x40 MSTORE DUP1 PUSH1 0x0 DUP2 MSTORE POP PUSH2 0x11EB JUMP JUMPDEST DUP1 PUSH2 0x11CA DUP5 PUSH2 0x169E JUMP JUMPDEST PUSH1 0x40 MLOAD PUSH1 0x20 ADD PUSH2 0x11DB SWAP3 SWAP2 SWAP1 PUSH2 0x2212 JUMP JUMPDEST PUSH1 0x40 MLOAD PUSH1 0x20 DUP2 DUP4 SUB SUB DUP2 MSTORE SWAP1 PUSH1 0x40 MSTORE JUMPDEST SWAP4 SWAP3 POP POP POP JUMP JUMPDEST PUSH2 0x11FA PUSH2 0x1311 JUMP JUMPDEST PUSH1 0x11 DUP1 SLOAD PUSH1 0xFF NOT DUP2 AND PUSH1 0xFF SWAP1 SWAP2 AND ISZERO OR SWAP1 SSTORE JUMP JUMPDEST PUSH1 0x0 DUP2 DUP2 MSTORE PUSH1 0x2 PUSH1 0x20 MSTORE PUSH1 0x40 DUP2 KECCAK256 SLOAD PUSH1 0x1 PUSH1 0x1 PUSH1 0xA0 SHL SUB AND PUSH2 0x1242 JUMPI PUSH1 0x40 MLOAD PUSH3 0x461BCD PUSH1 0xE5 SHL DUP2 MSTORE PUSH1 0x4 ADD PUSH2 0x920 SWAP1 PUSH2 0x20DE JUMP JUMPDEST POP PUSH1 0x0 SWAP1 DUP2 MSTORE PUSH1 0x13 PUSH1 0x20 MSTORE PUSH1 0x40 SWAP1 KECCAK256 SLOAD PUSH1 0xFF AND SWAP1 JUMP JUMPDEST PUSH1 0x1 PUSH1 0x1 PUSH1 0xA0 SHL SUB SWAP2 DUP3 AND PUSH1 0x0 SWAP1 DUP2 MSTORE PUSH1 0x5 PUSH1 0x20 SWAP1 DUP2 MSTORE PUSH1 0x40 DUP1 DUP4 KECCAK256 SWAP4 SWAP1 SWAP5 AND DUP3 MSTORE SWAP2 SWAP1 SWAP2 MSTORE KECCAK256 SLOAD PUSH1 0xFF AND SWAP1 JUMP JUMPDEST PUSH2 0x128E PUSH2 0x1311 JUMP JUMPDEST PUSH1 0x1 PUSH1 0x1 PUSH1 0xA0 SHL SUB DUP2 AND PUSH2 0x12B8 JUMPI PUSH1 0x40 MLOAD PUSH4 0x1E4FBDF7 PUSH1 0xE0 SHL DUP2 MSTORE PUSH1 0x0 PUSH1 0x4 DUP3 ADD MSTORE PUSH1 0x24 ADD PUSH2 0x920 JUMP JUMPDEST PUSH2 0xB43 DUP2 PUSH2 0x1473 JUMP JUMPDEST PUSH1 0x0 PUSH1 0x1 PUSH1 0x1 PUSH1 0xE0 SHL SUB NOT DUP3 AND PUSH4 0x80AC58CD PUSH1 0xE0 SHL EQ DUP1 PUSH2 0x12F2 JUMPI POP PUSH1 0x1 PUSH1 0x1 PUSH1 0xE0 SHL SUB NOT DUP3 AND PUSH4 0x5B5E139F PUSH1 0xE0 SHL EQ JUMPDEST DUP1 PUSH2 0x7D5 JUMPI POP PUSH4 0x1FFC9A7 PUSH1 0xE0 SHL PUSH1 0x1 PUSH1 0x1 PUSH1 0xE0 SHL SUB NOT DUP4 AND EQ PUSH2 0x7D5 JUMP JUMPDEST PUSH1 0xA SLOAD PUSH1 0x1 PUSH1 0x1 PUSH1 0xA0 SHL SUB AND CALLER EQ PUSH2 0xEA9 JUMPI PUSH1 0x40 MLOAD PUSH4 0x118CDAA7 PUSH1 0xE0 SHL DUP2 MSTORE CALLER PUSH1 0x4 DUP3 ADD MSTORE PUSH1 0x24 ADD PUSH2 0x920 JUMP JUMPDEST PUSH1 0x0 DUP2 DUP2 MSTORE PUSH1 0x2 PUSH1 0x20 MSTORE PUSH1 0x40 DUP2 KECCAK256 SLOAD PUSH1 0x1 PUSH1 0x1 PUSH1 0xA0 SHL SUB AND DUP1 PUSH2 0x7D5 JUMPI PUSH1 0x40 MLOAD PUSH4 0x7E273289 PUSH1 0xE0 SHL DUP2 MSTORE PUSH1 0x4 DUP2 ADD DUP5 SWAP1 MSTORE PUSH1 0x24 ADD PUSH2 0x920 JUMP JUMPDEST PUSH2 0xD23 DUP4 DUP4 DUP4 PUSH1 0x1 PUSH2 0x1731 JUMP JUMPDEST PUSH1 0x0 DUP1 PUSH2 0x1392 DUP6 DUP6 DUP6 PUSH2 0x1837 JUMP JUMPDEST SWAP1 POP PUSH1 0x1 PUSH1 0x1 PUSH1 0xA0 SHL SUB DUP2 AND PUSH2 0x13EF JUMPI PUSH2 0x13EA DUP5 PUSH1 0x8 DUP1 SLOAD PUSH1 0x0 DUP4 DUP2 MSTORE PUSH1 0x9 PUSH1 0x20 MSTORE PUSH1 0x40 DUP2 KECCAK256 DUP3 SWAP1 SSTORE PUSH1 0x1 DUP3 ADD DUP4 SSTORE SWAP2 SWAP1 SWAP2 MSTORE PUSH32 0xF3F7A9FE364FAAB93B216DA50A3214154F22A0A2B415B23A84C8169E8B636EE3 ADD SSTORE JUMP JUMPDEST PUSH2 0x1412 JUMP JUMPDEST DUP5 PUSH1 0x1 PUSH1 0x1 PUSH1 0xA0 SHL SUB AND DUP2 PUSH1 0x1 PUSH1 0x1 PUSH1 0xA0 SHL SUB AND EQ PUSH2 0x1412 JUMPI PUSH2 0x1412 DUP2 DUP6 PUSH2 0x1930 JUMP JUMPDEST PUSH1 0x1 PUSH1 0x1 PUSH1 0xA0 SHL SUB DUP6 AND PUSH2 0x142E JUMPI PUSH2 0x1429 DUP5 PUSH2 0x19B1 JUMP JUMPDEST PUSH2 0x1451 JUMP JUMPDEST DUP5 PUSH1 0x1 PUSH1 0x1 PUSH1 0xA0 SHL SUB AND DUP2 PUSH1 0x1 PUSH1 0x1 PUSH1 0xA0 SHL SUB AND EQ PUSH2 0x1451 JUMPI PUSH2 0x1451 DUP6 DUP6 PUSH2 0x1A60 JUMP JUMPDEST SWAP5 SWAP4 POP POP POP POP JUMP JUMPDEST PUSH2 0x8F6 DUP3 DUP3 PUSH1 0x40 MLOAD DUP1 PUSH1 0x20 ADD PUSH1 0x40 MSTORE DUP1 PUSH1 0x0 DUP2 MSTORE POP PUSH2 0x1AB0 JUMP JUMPDEST PUSH1 0xA DUP1 SLOAD PUSH1 0x1 PUSH1 0x1 PUSH1 0xA0 SHL SUB DUP4 DUP2 AND PUSH1 0x1 PUSH1 0x1 PUSH1 0xA0 SHL SUB NOT DUP4 AND DUP2 OR SWAP1 SWAP4 SSTORE PUSH1 0x40 MLOAD SWAP2 AND SWAP2 SWAP1 DUP3 SWAP1 PUSH32 0x8BE0079C531659141344CD1FD0A4F28419497F9722A3DAAFE3B4186F6B6457E0 SWAP1 PUSH1 0x0 SWAP1 LOG3 POP POP JUMP JUMPDEST PUSH1 0x1 PUSH1 0x1 PUSH1 0xA0 SHL SUB DUP3 AND PUSH2 0x14F7 JUMPI PUSH1 0x40 MLOAD PUSH4 0xB611743 PUSH1 0xE3 SHL DUP2 MSTORE PUSH1 0x1 PUSH1 0x1 PUSH1 0xA0 SHL SUB DUP4 AND PUSH1 0x4 DUP3 ADD MSTORE PUSH1 0x24 ADD PUSH2 0x920 JUMP JUMPDEST PUSH1 0x1 PUSH1 0x1 PUSH1 0xA0 SHL SUB DUP4 DUP2 AND PUSH1 0x0 DUP2 DUP2 MSTORE PUSH1 0x5 PUSH1 0x20 SWAP1 DUP2 MSTORE PUSH1 0x40 DUP1 DUP4 KECCAK256 SWAP5 DUP8 AND DUP1 DUP5 MSTORE SWAP5 DUP3 MSTORE SWAP2 DUP3 SWAP1 KECCAK256 DUP1 SLOAD PUSH1 0xFF NOT AND DUP7 ISZERO ISZERO SWAP1 DUP2 OR SWAP1 SWAP2 SSTORE SWAP2 MLOAD SWAP2 DUP3 MSTORE PUSH32 0x17307EAB39AB6107E8899845AD3D59BD9653F200F220920489CA2B5937696C31 SWAP2 ADD PUSH1 0x40 MLOAD DUP1 SWAP2 SUB SWAP1 LOG3 POP POP POP JUMP JUMPDEST PUSH1 0x1 PUSH1 0x1 PUSH1 0xA0 SHL SUB DUP4 AND EXTCODESIZE ISZERO PUSH2 0x1688 JUMPI PUSH1 0x40 MLOAD PUSH4 0xA85BD01 PUSH1 0xE1 SHL DUP2 MSTORE PUSH1 0x1 PUSH1 0x1 PUSH1 0xA0 SHL SUB DUP5 AND SWAP1 PUSH4 0x150B7A02 SWAP1 PUSH2 0x15A6 SWAP1 DUP9 SWAP1 DUP9 SWAP1 DUP8 SWAP1 DUP8 SWAP1 PUSH1 0x4 ADD PUSH2 0x2241 JUMP JUMPDEST PUSH1 0x20 PUSH1 0x40 MLOAD DUP1 DUP4 SUB DUP2 PUSH1 0x0 DUP8 GAS CALL SWAP3 POP POP POP DUP1 ISZERO PUSH2 0x15E1 JUMPI POP PUSH1 0x40 DUP1 MLOAD PUSH1 0x1F RETURNDATASIZE SWAP1 DUP2 ADD PUSH1 0x1F NOT AND DUP3 ADD SWAP1 SWAP3 MSTORE PUSH2 0x15DE SWAP2 DUP2 ADD SWAP1 PUSH2 0x227E JUMP JUMPDEST PUSH1 0x1 JUMPDEST PUSH2 0x164A JUMPI RETURNDATASIZE DUP1 DUP1 ISZERO PUSH2 0x160F JUMPI PUSH1 0x40 MLOAD SWAP2 POP PUSH1 0x1F NOT PUSH1 0x3F RETURNDATASIZE ADD AND DUP3 ADD PUSH1 0x40 MSTORE RETURNDATASIZE DUP3 MSTORE RETURNDATASIZE PUSH1 0x0 PUSH1 0x20 DUP5 ADD RETURNDATACOPY PUSH2 0x1614 JUMP JUMPDEST PUSH1 0x60 SWAP2 POP JUMPDEST POP DUP1 MLOAD PUSH1 0x0 SUB PUSH2 0x1642 JUMPI PUSH1 0x40 MLOAD PUSH4 0x32505749 PUSH1 0xE1 SHL DUP2 MSTORE PUSH1 0x1 PUSH1 0x1 PUSH1 0xA0 SHL SUB DUP6 AND PUSH1 0x4 DUP3 ADD MSTORE PUSH1 0x24 ADD PUSH2 0x920 JUMP JUMPDEST DUP1 MLOAD PUSH1 0x20 DUP3 ADD REVERT JUMPDEST PUSH1 0x1 PUSH1 0x1 PUSH1 0xE0 SHL SUB NOT DUP2 AND PUSH4 0xA85BD01 PUSH1 0xE1 SHL EQ PUSH2 0x1686 JUMPI PUSH1 0x40 MLOAD PUSH4 0x32505749 PUSH1 0xE1 SHL DUP2 MSTORE PUSH1 0x1 PUSH1 0x1 PUSH1 0xA0 SHL SUB DUP6 AND PUSH1 0x4 DUP3 ADD MSTORE PUSH1 0x24 ADD PUSH2 0x920 JUMP JUMPDEST POP JUMPDEST POP POP POP POP POP JUMP JUMPDEST PUSH1 0x60 PUSH1 0x15 DUP1 SLOAD PUSH2 0x83F SWAP1 PUSH2 0x2022 JUMP JUMPDEST PUSH1 0x60 PUSH1 0x0 PUSH2 0x16AB DUP4 PUSH2 0x1AC8 JUMP JUMPDEST PUSH1 0x1 ADD SWAP1 POP PUSH1 0x0 DUP2 PUSH8 0xFFFFFFFFFFFFFFFF DUP2 GT ISZERO PUSH2 0x16CB JUMPI PUSH2 0x16CB PUSH2 0x1E62 JUMP JUMPDEST PUSH1 0x40 MLOAD SWAP1 DUP1 DUP3 MSTORE DUP1 PUSH1 0x1F ADD PUSH1 0x1F NOT AND PUSH1 0x20 ADD DUP3 ADD PUSH1 0x40 MSTORE DUP1 ISZERO PUSH2 0x16F5 JUMPI PUSH1 0x20 DUP3 ADD DUP2 DUP1 CALLDATASIZE DUP4 CALLDATACOPY ADD SWAP1 POP JUMPDEST POP SWAP1 POP DUP2 DUP2 ADD PUSH1 0x20 ADD JUMPDEST PUSH1 0x0 NOT ADD PUSH16 0x181899199A1A9B1B9C1CB0B131B232B3 PUSH1 0x81 SHL PUSH1 0xA DUP7 MOD BYTE DUP2 MSTORE8 PUSH1 0xA DUP6 DIV SWAP5 POP DUP5 PUSH2 0x16FF JUMPI POP SWAP4 SWAP3 POP POP POP JUMP JUMPDEST DUP1 DUP1 PUSH2 0x1745 JUMPI POP PUSH1 0x1 PUSH1 0x1 PUSH1 0xA0 SHL SUB DUP3 AND ISZERO ISZERO JUMPDEST ISZERO PUSH2 0x1807 JUMPI PUSH1 0x0 PUSH2 0x1755 DUP5 PUSH2 0x133E JUMP JUMPDEST SWAP1 POP PUSH1 0x1 PUSH1 0x1 PUSH1 0xA0 SHL SUB DUP4 AND ISZERO DUP1 ISZERO SWAP1 PUSH2 0x1781 JUMPI POP DUP3 PUSH1 0x1 PUSH1 0x1 PUSH1 0xA0 SHL SUB AND DUP2 PUSH1 0x1 PUSH1 0x1 PUSH1 0xA0 SHL SUB AND EQ ISZERO JUMPDEST DUP1 ISZERO PUSH2 0x1794 JUMPI POP PUSH2 0x1792 DUP2 DUP5 PUSH2 0x1258 JUMP JUMPDEST ISZERO JUMPDEST ISZERO PUSH2 0x17BD JUMPI PUSH1 0x40 MLOAD PUSH4 0xA9FBF51F PUSH1 0xE0 SHL DUP2 MSTORE PUSH1 0x1 PUSH1 0x1 PUSH1 0xA0 SHL SUB DUP5 AND PUSH1 0x4 DUP3 ADD MSTORE PUSH1 0x24 ADD PUSH2 0x920 JUMP JUMPDEST DUP2 ISZERO PUSH2 0x1805 JUMPI DUP4 DUP6 PUSH1 0x1 PUSH1 0x1 PUSH1 0xA0 SHL SUB AND DUP3 PUSH1 0x1 PUSH1 0x1 PUSH1 0xA0 SHL SUB AND PUSH32 0x8C5BE1E5EBEC7D5BD14F71427D1E84F3DD0314C0F7B2291E5B200AC8C7C3B925 PUSH1 0x40 MLOAD PUSH1 0x40 MLOAD DUP1 SWAP2 SUB SWAP1 LOG4 JUMPDEST POP JUMPDEST POP POP PUSH1 0x0 SWAP1 DUP2 MSTORE PUSH1 0x4 PUSH1 0x20 MSTORE PUSH1 0x40 SWAP1 KECCAK256 DUP1 SLOAD PUSH1 0x1 PUSH1 0x1 PUSH1 0xA0 SHL SUB NOT AND PUSH1 0x1 PUSH1 0x1 PUSH1 0xA0 SHL SUB SWAP3 SWAP1 SWAP3 AND SWAP2 SWAP1 SWAP2 OR SWAP1 SSTORE JUMP JUMPDEST PUSH1 0x0 DUP3 DUP2 MSTORE PUSH1 0x2 PUSH1 0x20 MSTORE PUSH1 0x40 DUP2 KECCAK256 SLOAD PUSH1 0x1 PUSH1 0x1 PUSH1 0xA0 SHL SUB SWAP1 DUP2 AND SWAP1 DUP4 AND ISZERO PUSH2 0x1864 JUMPI PUSH2 0x1864 DUP2 DUP5 DUP7 PUSH2 0x1BA0 JUMP JUMPDEST PUSH1 0x1 PUSH1 0x1 PUSH1 0xA0 SHL SUB DUP2 AND ISZERO PUSH2 0x18A2 JUMPI PUSH2 0x1881 PUSH1 0x0 DUP6 PUSH1 0x0 DUP1 PUSH2 0x1731 JUMP JUMPDEST PUSH1 0x1 PUSH1 0x1 PUSH1 0xA0 SHL SUB DUP2 AND PUSH1 0x0 SWAP1 DUP2 MSTORE PUSH1 0x3 PUSH1 0x20 MSTORE PUSH1 0x40 SWAP1 KECCAK256 DUP1 SLOAD PUSH1 0x0 NOT ADD SWAP1 SSTORE JUMPDEST PUSH1 0x1 PUSH1 0x1 PUSH1 0xA0 SHL SUB DUP6 AND ISZERO PUSH2 0x18D1 JUMPI PUSH1 0x1 PUSH1 0x1 PUSH1 0xA0 SHL SUB DUP6 AND PUSH1 0x0 SWAP1 DUP2 MSTORE PUSH1 0x3 PUSH1 0x20 MSTORE PUSH1 0x40 SWAP1 KECCAK256 DUP1 SLOAD PUSH1 0x1 ADD SWAP1 SSTORE JUMPDEST PUSH1 0x0 DUP5 DUP2 MSTORE PUSH1 0x2 PUSH1 0x20 MSTORE PUSH1 0x40 DUP1 DUP3 KECCAK256 DUP1 SLOAD PUSH1 0x1 PUSH1 0x1 PUSH1 0xA0 SHL SUB NOT AND PUSH1 0x1 PUSH1 0x1 PUSH1 0xA0 SHL SUB DUP10 DUP2 AND SWAP2 DUP3 OR SWAP1 SWAP3 SSTORE SWAP2 MLOAD DUP8 SWAP4 SWAP2 DUP6 AND SWAP2 PUSH32 0xDDF252AD1BE2C89B69C2B068FC378DAA952BA7F163C4A11628F55A4DF523B3EF SWAP2 LOG4 SWAP5 SWAP4 POP POP POP POP JUMP JUMPDEST PUSH1 0x0 PUSH2 0x193B DUP4 PUSH2 0xE4F JUMP JUMPDEST PUSH1 0x0 DUP4 DUP2 MSTORE PUSH1 0x7 PUSH1 0x20 SWAP1 DUP2 MSTORE PUSH1 0x40 DUP1 DUP4 KECCAK256 SLOAD PUSH1 0x1 PUSH1 0x1 PUSH1 0xA0 SHL SUB DUP9 AND DUP5 MSTORE PUSH1 0x6 SWAP1 SWAP3 MSTORE SWAP1 SWAP2 KECCAK256 SWAP2 SWAP3 POP SWAP1 DUP2 DUP4 EQ PUSH2 0x1992 JUMPI PUSH1 0x0 DUP4 DUP2 MSTORE PUSH1 0x20 DUP3 DUP2 MSTORE PUSH1 0x40 DUP1 DUP4 KECCAK256 SLOAD DUP6 DUP5 MSTORE DUP2 DUP5 KECCAK256 DUP2 SWAP1 SSTORE DUP4 MSTORE PUSH1 0x7 SWAP1 SWAP2 MSTORE SWAP1 KECCAK256 DUP3 SWAP1 SSTORE JUMPDEST PUSH1 0x0 SWAP4 DUP5 MSTORE PUSH1 0x7 PUSH1 0x20 SWAP1 DUP2 MSTORE PUSH1 0x40 DUP1 DUP7 KECCAK256 DUP7 SWAP1 SSTORE SWAP4 DUP6 MSTORE MSTORE POP DUP2 KECCAK256 SSTORE POP JUMP JUMPDEST PUSH1 0x8 SLOAD PUSH1 0x0 SWAP1 PUSH2 0x19C3 SWAP1 PUSH1 0x1 SWAP1 PUSH2 0x2085 JUMP JUMPDEST PUSH1 0x0 DUP4 DUP2 MSTORE PUSH1 0x9 PUSH1 0x20 MSTORE PUSH1 0x40 DUP2 KECCAK256 SLOAD PUSH1 0x8 DUP1 SLOAD SWAP4 SWAP5 POP SWAP1 SWAP3 DUP5 SWAP1 DUP2 LT PUSH2 0x19EB JUMPI PUSH2 0x19EB PUSH2 0x20C8 JUMP JUMPDEST SWAP1 PUSH1 0x0 MSTORE PUSH1 0x20 PUSH1 0x0 KECCAK256 ADD SLOAD SWAP1 POP DUP1 PUSH1 0x8 DUP4 DUP2 SLOAD DUP2 LT PUSH2 0x1A0C JUMPI PUSH2 0x1A0C PUSH2 0x20C8 JUMP JUMPDEST PUSH1 0x0 SWAP2 DUP3 MSTORE PUSH1 0x20 DUP1 DUP4 KECCAK256 SWAP1 SWAP2 ADD SWAP3 SWAP1 SWAP3 SSTORE DUP3 DUP2 MSTORE PUSH1 0x9 SWAP1 SWAP2 MSTORE PUSH1 0x40 DUP1 DUP3 KECCAK256 DUP5 SWAP1 SSTORE DUP6 DUP3 MSTORE DUP2 KECCAK256 SSTORE PUSH1 0x8 DUP1 SLOAD DUP1 PUSH2 0x1A44 JUMPI PUSH2 0x1A44 PUSH2 0x229B JUMP JUMPDEST PUSH1 0x1 SWAP1 SUB DUP2 DUP2 SWAP1 PUSH1 0x0 MSTORE PUSH1 0x20 PUSH1 0x0 KECCAK256 ADD PUSH1 0x0 SWAP1 SSTORE SWAP1 SSTORE POP POP POP POP JUMP JUMPDEST PUSH1 0x0 PUSH1 0x1 PUSH2 0x1A6D DUP5 PUSH2 0xE4F JUMP JUMPDEST PUSH2 0x1A77 SWAP2 SWAP1 PUSH2 0x2085 JUMP JUMPDEST PUSH1 0x1 PUSH1 0x1 PUSH1 0xA0 SHL SUB SWAP1 SWAP4 AND PUSH1 0x0 SWAP1 DUP2 MSTORE PUSH1 0x6 PUSH1 0x20 SWAP1 DUP2 MSTORE PUSH1 0x40 DUP1 DUP4 KECCAK256 DUP7 DUP5 MSTORE DUP3 MSTORE DUP1 DUP4 KECCAK256 DUP6 SWAP1 SSTORE SWAP4 DUP3 MSTORE PUSH1 0x7 SWAP1 MSTORE SWAP2 SWAP1 SWAP2 KECCAK256 SWAP2 SWAP1 SWAP2 SSTORE POP JUMP JUMPDEST PUSH2 0x1ABA DUP4 DUP4 PUSH2 0x1C04 JUMP JUMPDEST PUSH2 0xD23 CALLER PUSH1 0x0 DUP6 DUP6 DUP6 PUSH2 0x1564 JUMP JUMPDEST PUSH1 0x0 DUP1 PUSH19 0x184F03E93FF9F4DAA797ED6E38ED64BF6A1F01 PUSH1 0x40 SHL DUP4 LT PUSH2 0x1B07 JUMPI PUSH19 0x184F03E93FF9F4DAA797ED6E38ED64BF6A1F01 PUSH1 0x40 SHL DUP4 DIV SWAP3 POP PUSH1 0x40 ADD JUMPDEST PUSH14 0x4EE2D6D415B85ACEF8100000000 DUP4 LT PUSH2 0x1B33 JUMPI PUSH14 0x4EE2D6D415B85ACEF8100000000 DUP4 DIV SWAP3 POP PUSH1 0x20 ADD JUMPDEST PUSH7 0x2386F26FC10000 DUP4 LT PUSH2 0x1B51 JUMPI PUSH7 0x2386F26FC10000 DUP4 DIV SWAP3 POP PUSH1 0x10 ADD JUMPDEST PUSH4 0x5F5E100 DUP4 LT PUSH2 0x1B69 JUMPI PUSH4 0x5F5E100 DUP4 DIV SWAP3 POP PUSH1 0x8 ADD JUMPDEST PUSH2 0x2710 DUP4 LT PUSH2 0x1B7D JUMPI PUSH2 0x2710 DUP4 DIV SWAP3 POP PUSH1 0x4 ADD JUMPDEST PUSH1 0x64 DUP4 LT PUSH2 0x1B8F JUMPI PUSH1 0x64 DUP4 DIV SWAP3 POP PUSH1 0x2 ADD JUMPDEST PUSH1 0xA DUP4 LT PUSH2 0x7D5 JUMPI PUSH1 0x1 ADD SWAP3 SWAP2 POP POP JUMP JUMPDEST PUSH2 0x1BAB DUP4 DUP4 DUP4 PUSH2 0x1C69 JUMP JUMPDEST PUSH2 0xD23 JUMPI PUSH1 0x1 PUSH1 0x1 PUSH1 0xA0 SHL SUB DUP4 AND PUSH2 0x1BD9 JUMPI PUSH1 0x40 MLOAD PUSH4 0x7E273289 PUSH1 0xE0 SHL DUP2 MSTORE PUSH1 0x4 DUP2 ADD DUP3 SWAP1 MSTORE PUSH1 0x24 ADD PUSH2 0x920 JUMP JUMPDEST PUSH1 0x40 MLOAD PUSH4 0x177E802F PUSH1 0xE0 SHL DUP2 MSTORE PUSH1 0x1 PUSH1 0x1 PUSH1 0xA0 SHL SUB DUP4 AND PUSH1 0x4 DUP3 ADD MSTORE PUSH1 0x24 DUP2 ADD DUP3 SWAP1 MSTORE PUSH1 0x44 ADD PUSH2 0x920 JUMP JUMPDEST PUSH1 0x1 PUSH1 0x1 PUSH1 0xA0 SHL SUB DUP3 AND PUSH2 0x1C2E JUMPI PUSH1 0x40 MLOAD PUSH4 0x32505749 PUSH1 0xE1 SHL DUP2 MSTORE PUSH1 0x0 PUSH1 0x4 DUP3 ADD MSTORE PUSH1 0x24 ADD PUSH2 0x920 JUMP JUMPDEST PUSH1 0x0 PUSH2 0x1C3C DUP4 DUP4 PUSH1 0x0 PUSH2 0x1384 JUMP JUMPDEST SWAP1 POP PUSH1 0x1 PUSH1 0x1 PUSH1 0xA0 SHL SUB DUP2 AND ISZERO PUSH2 0xD23 JUMPI PUSH1 0x40 MLOAD PUSH4 0x39E35637 PUSH1 0xE1 SHL DUP2 MSTORE PUSH1 0x0 PUSH1 0x4 DUP3 ADD MSTORE PUSH1 0x24 ADD PUSH2 0x920 JUMP JUMPDEST PUSH1 0x0 PUSH1 0x1 PUSH1 0x1 PUSH1 0xA0 SHL SUB DUP4 AND ISZERO DUP1 ISZERO SWAP1 PUSH2 0x1451 JUMPI POP DUP3 PUSH1 0x1 PUSH1 0x1 PUSH1 0xA0 SHL SUB AND DUP5 PUSH1 0x1 PUSH1 0x1 PUSH1 0xA0 SHL SUB AND EQ DUP1 PUSH2 0x1CA3 JUMPI POP PUSH2 0x1CA3 DUP5 DUP5 PUSH2 0x1258 JUMP JUMPDEST DUP1 PUSH2 0x1451 JUMPI POP POP PUSH1 0x0 SWAP1 DUP2 MSTORE PUSH1 0x4 PUSH1 0x20 MSTORE PUSH1 0x40 SWAP1 KECCAK256 SLOAD PUSH1 0x1 PUSH1 0x1 PUSH1 0xA0 SHL SUB SWAP1 DUP2 AND SWAP2 AND EQ SWAP2 SWAP1 POP JUMP JUMPDEST PUSH1 0x1 PUSH1 0x1 PUSH1 0xE0 SHL SUB NOT DUP2 AND DUP2 EQ PUSH2 0xB43 JUMPI PUSH1 0x0 DUP1 REVERT JUMPDEST PUSH1 0x0 PUSH1 0x20 DUP3 DUP5 SUB SLT ISZERO PUSH2 0x1CF4 JUMPI PUSH1 0x0 DUP1 REVERT JUMPDEST DUP2 CALLDATALOAD PUSH2 0x11EB DUP2 PUSH2 0x1CCC JUMP JUMPDEST PUSH1 0x0 DUP1 PUSH1 0x40 DUP4 DUP6 SUB SLT ISZERO PUSH2 0x1D12 JUMPI PUSH1 0x0 DUP1 REVERT JUMPDEST POP POP DUP1 CALLDATALOAD SWAP3 PUSH1 0x20 SWAP1 SWAP2 ADD CALLDATALOAD SWAP2 POP JUMP JUMPDEST PUSH1 0x0 JUMPDEST DUP4 DUP2 LT ISZERO PUSH2 0x1D3C JUMPI DUP2 DUP2 ADD MLOAD DUP4 DUP3 ADD MSTORE PUSH1 0x20 ADD PUSH2 0x1D24 JUMP JUMPDEST POP POP PUSH1 0x0 SWAP2 ADD MSTORE JUMP JUMPDEST PUSH1 0x0 DUP2 MLOAD DUP1 DUP5 MSTORE PUSH2 0x1D5D DUP2 PUSH1 0x20 DUP7 ADD PUSH1 0x20 DUP7 ADD PUSH2 0x1D21 JUMP JUMPDEST PUSH1 0x1F ADD PUSH1 0x1F NOT AND SWAP3 SWAP1 SWAP3 ADD PUSH1 0x20 ADD SWAP3 SWAP2 POP POP JUMP JUMPDEST PUSH1 0x20 DUP2 MSTORE PUSH1 0x0 PUSH2 0x11EB PUSH1 0x20 DUP4 ADD DUP5 PUSH2 0x1D45 JUMP JUMPDEST PUSH1 0x0 PUSH1 0x20 DUP3 DUP5 SUB SLT ISZERO PUSH2 0x1D96 JUMPI PUSH1 0x0 DUP1 REVERT JUMPDEST POP CALLDATALOAD SWAP2 SWAP1 POP JUMP JUMPDEST DUP1 CALLDATALOAD PUSH1 0x1 PUSH1 0x1 PUSH1 0xA0 SHL SUB DUP2 AND DUP2 EQ PUSH2 0x1DB4 JUMPI PUSH1 0x0 DUP1 REVERT JUMPDEST SWAP2 SWAP1 POP JUMP JUMPDEST PUSH1 0x0 DUP1 PUSH1 0x40 DUP4 DUP6 SUB SLT ISZERO PUSH2 0x1DCC JUMPI PUSH1 0x0 DUP1 REVERT JUMPDEST PUSH2 0x1DD5 DUP4 PUSH2 0x1D9D JUMP JUMPDEST SWAP5 PUSH1 0x20 SWAP4 SWAP1 SWAP4 ADD CALLDATALOAD SWAP4 POP POP POP JUMP JUMPDEST PUSH1 0x0 DUP1 PUSH1 0x0 PUSH1 0x60 DUP5 DUP7 SUB SLT ISZERO PUSH2 0x1DF8 JUMPI PUSH1 0x0 DUP1 REVERT JUMPDEST PUSH2 0x1E01 DUP5 PUSH2 0x1D9D JUMP JUMPDEST SWAP3 POP PUSH2 0x1E0F PUSH1 0x20 DUP6 ADD PUSH2 0x1D9D JUMP JUMPDEST SWAP2 POP PUSH1 0x40 DUP5 ADD CALLDATALOAD SWAP1 POP SWAP3 POP SWAP3 POP SWAP3 JUMP JUMPDEST PUSH1 0x0 PUSH1 0x20 DUP3 DUP5 SUB SLT ISZERO PUSH2 0x1E31 JUMPI PUSH1 0x0 DUP1 REVERT JUMPDEST PUSH2 0x11EB DUP3 PUSH2 0x1D9D JUMP JUMPDEST PUSH1 0x20 DUP2 ADD PUSH1 0x2 DUP4 LT PUSH2 0x1E5C JUMPI PUSH4 0x4E487B71 PUSH1 0xE0 SHL PUSH1 0x0 MSTORE PUSH1 0x21 PUSH1 0x4 MSTORE PUSH1 0x24 PUSH1 0x0 REVERT JUMPDEST SWAP2 SWAP1 MSTORE SWAP1 JUMP JUMPDEST PUSH4 0x4E487B71 PUSH1 0xE0 SHL PUSH1 0x0 MSTORE PUSH1 0x41 PUSH1 0x4 MSTORE PUSH1 0x24 PUSH1 0x0 REVERT JUMPDEST PUSH1 0x0 PUSH8 0xFFFFFFFFFFFFFFFF DUP1 DUP5 GT ISZERO PUSH2 0x1E93 JUMPI PUSH2 0x1E93 PUSH2 0x1E62 JUMP JUMPDEST PUSH1 0x40 MLOAD PUSH1 0x1F DUP6 ADD PUSH1 0x1F NOT SWAP1 DUP2 AND PUSH1 0x3F ADD AND DUP2 ADD SWAP1 DUP3 DUP3 GT DUP2 DUP4 LT OR ISZERO PUSH2 0x1EBB JUMPI PUSH2 0x1EBB PUSH2 0x1E62 JUMP JUMPDEST DUP2 PUSH1 0x40 MSTORE DUP1 SWAP4 POP DUP6 DUP2 MSTORE DUP7 DUP7 DUP7 ADD GT ISZERO PUSH2 0x1ED4 JUMPI PUSH1 0x0 DUP1 REVERT JUMPDEST DUP6 DUP6 PUSH1 0x20 DUP4 ADD CALLDATACOPY PUSH1 0x0 PUSH1 0x20 DUP8 DUP4 ADD ADD MSTORE POP POP POP SWAP4 SWAP3 POP POP POP JUMP JUMPDEST PUSH1 0x0 PUSH1 0x20 DUP3 DUP5 SUB SLT ISZERO PUSH2 0x1F00 JUMPI PUSH1 0x0 DUP1 REVERT JUMPDEST DUP2 CALLDATALOAD PUSH8 0xFFFFFFFFFFFFFFFF DUP2 GT ISZERO PUSH2 0x1F17 JUMPI PUSH1 0x0 DUP1 REVERT JUMPDEST DUP3 ADD PUSH1 0x1F DUP2 ADD DUP5 SGT PUSH2 0x1F28 JUMPI PUSH1 0x0 DUP1 REVERT JUMPDEST PUSH2 0x1451 DUP5 DUP3 CALLDATALOAD PUSH1 0x20 DUP5 ADD PUSH2 0x1E78 JUMP JUMPDEST PUSH1 0x0 DUP1 PUSH1 0x40 DUP4 DUP6 SUB SLT ISZERO PUSH2 0x1F4A JUMPI PUSH1 0x0 DUP1 REVERT JUMPDEST PUSH2 0x1F53 DUP4 PUSH2 0x1D9D JUMP JUMPDEST SWAP2 POP PUSH1 0x20 DUP4 ADD CALLDATALOAD DUP1 ISZERO ISZERO DUP2 EQ PUSH2 0x1F68 JUMPI PUSH1 0x0 DUP1 REVERT JUMPDEST DUP1 SWAP2 POP POP SWAP3 POP SWAP3 SWAP1 POP JUMP JUMPDEST PUSH1 0x0 DUP1 PUSH1 0x0 DUP1 PUSH1 0x80 DUP6 DUP8 SUB SLT ISZERO PUSH2 0x1F89 JUMPI PUSH1 0x0 DUP1 REVERT JUMPDEST PUSH2 0x1F92 DUP6 PUSH2 0x1D9D JUMP JUMPDEST SWAP4 POP PUSH2 0x1FA0 PUSH1 0x20 DUP7 ADD PUSH2 0x1D9D JUMP JUMPDEST SWAP3 POP PUSH1 0x40 DUP6 ADD CALLDATALOAD SWAP2 POP PUSH1 0x60 DUP6 ADD CALLDATALOAD PUSH8 0xFFFFFFFFFFFFFFFF DUP2 GT ISZERO PUSH2 0x1FC3 JUMPI PUSH1 0x0 DUP1 REVERT JUMPDEST DUP6 ADD PUSH1 0x1F DUP2 ADD DUP8 SGT PUSH2 0x1FD4 JUMPI PUSH1 0x0 DUP1 REVERT JUMPDEST PUSH2 0x1FE3 DUP8 DUP3 CALLDATALOAD PUSH1 0x20 DUP5 ADD PUSH2 0x1E78 JUMP JUMPDEST SWAP2 POP POP SWAP3 SWAP6 SWAP2 SWAP5 POP SWAP3 POP JUMP JUMPDEST PUSH1 0x0 DUP1 PUSH1 0x40 DUP4 DUP6 SUB SLT ISZERO PUSH2 0x2002 JUMPI PUSH1 0x0 DUP1 REVERT JUMPDEST PUSH2 0x200B DUP4 PUSH2 0x1D9D JUMP JUMPDEST SWAP2 POP PUSH2 0x2019 PUSH1 0x20 DUP5 ADD PUSH2 0x1D9D JUMP JUMPDEST SWAP1 POP SWAP3 POP SWAP3 SWAP1 POP JUMP JUMPDEST PUSH1 0x1 DUP2 DUP2 SHR SWAP1 DUP3 AND DUP1 PUSH2 0x2036 JUMPI PUSH1 0x7F DUP3 AND SWAP2 POP JUMPDEST PUSH1 0x20 DUP3 LT DUP2 SUB PUSH2 0x2056 JUMPI PUSH4 0x4E487B71 PUSH1 0xE0 SHL PUSH1 0x0 MSTORE PUSH1 0x22 PUSH1 0x4 MSTORE PUSH1 0x24 PUSH1 0x0 REVERT JUMPDEST POP SWAP2 SWAP1 POP JUMP JUMPDEST PUSH4 0x4E487B71 PUSH1 0xE0 SHL PUSH1 0x0 MSTORE PUSH1 0x11 PUSH1 0x4 MSTORE PUSH1 0x24 PUSH1 0x0 REVERT JUMPDEST DUP1 DUP3 ADD DUP1 DUP3 GT ISZERO PUSH2 0x7D5 JUMPI PUSH2 0x7D5 PUSH2 0x205C JUMP JUMPDEST DUP2 DUP2 SUB DUP2 DUP2 GT ISZERO PUSH2 0x7D5 JUMPI PUSH2 0x7D5 PUSH2 0x205C JUMP JUMPDEST DUP1 DUP3 MUL DUP2 ISZERO DUP3 DUP3 DIV DUP5 EQ OR PUSH2 0x7D5 JUMPI PUSH2 0x7D5 PUSH2 0x205C JUMP JUMPDEST PUSH1 0x0 PUSH1 0x1 DUP3 ADD PUSH2 0x20C1 JUMPI PUSH2 0x20C1 PUSH2 0x205C JUMP JUMPDEST POP PUSH1 0x1 ADD SWAP1 JUMP JUMPDEST PUSH4 0x4E487B71 PUSH1 0xE0 SHL PUSH1 0x0 MSTORE PUSH1 0x32 PUSH1 0x4 MSTORE PUSH1 0x24 PUSH1 0x0 REVERT JUMPDEST PUSH1 0x20 DUP1 DUP3 MSTORE PUSH1 0x14 SWAP1 DUP3 ADD MSTORE PUSH20 0x151BDAD95B88191BD95CC81B9BDD08195E1A5CDD PUSH1 0x62 SHL PUSH1 0x40 DUP3 ADD MSTORE PUSH1 0x60 ADD SWAP1 JUMP JUMPDEST PUSH1 0x1F DUP3 GT ISZERO PUSH2 0xD23 JUMPI PUSH1 0x0 DUP2 DUP2 MSTORE PUSH1 0x20 DUP2 KECCAK256 PUSH1 0x1F DUP6 ADD PUSH1 0x5 SHR DUP2 ADD PUSH1 0x20 DUP7 LT ISZERO PUSH2 0x2133 JUMPI POP DUP1 JUMPDEST PUSH1 0x1F DUP6 ADD PUSH1 0x5 SHR DUP3 ADD SWAP2 POP JUMPDEST DUP2 DUP2 LT ISZERO PUSH2 0x1686 JUMPI DUP3 DUP2 SSTORE PUSH1 0x1 ADD PUSH2 0x213F JUMP JUMPDEST DUP2 MLOAD PUSH8 0xFFFFFFFFFFFFFFFF DUP2 GT ISZERO PUSH2 0x216C JUMPI PUSH2 0x216C PUSH2 0x1E62 JUMP JUMPDEST PUSH2 0x2180 DUP2 PUSH2 0x217A DUP5 SLOAD PUSH2 0x2022 JUMP JUMPDEST DUP5 PUSH2 0x210C JUMP JUMPDEST PUSH1 0x20 DUP1 PUSH1 0x1F DUP4 GT PUSH1 0x1 DUP2 EQ PUSH2 0x21B5 JUMPI PUSH1 0x0 DUP5 ISZERO PUSH2 0x219D JUMPI POP DUP6 DUP4 ADD MLOAD JUMPDEST PUSH1 0x0 NOT PUSH1 0x3 DUP7 SWAP1 SHL SHR NOT AND PUSH1 0x1 DUP6 SWAP1 SHL OR DUP6 SSTORE PUSH2 0x1686 JUMP JUMPDEST PUSH1 0x0 DUP6 DUP2 MSTORE PUSH1 0x20 DUP2 KECCAK256 PUSH1 0x1F NOT DUP7 AND SWAP2 JUMPDEST DUP3 DUP2 LT ISZERO PUSH2 0x21E4 JUMPI DUP9 DUP7 ADD MLOAD DUP3 SSTORE SWAP5 DUP5 ADD SWAP5 PUSH1 0x1 SWAP1 SWAP2 ADD SWAP1 DUP5 ADD PUSH2 0x21C5 JUMP JUMPDEST POP DUP6 DUP3 LT ISZERO PUSH2 0x2202 JUMPI DUP8 DUP6 ADD MLOAD PUSH1 0x0 NOT PUSH1 0x3 DUP9 SWAP1 SHL PUSH1 0xF8 AND SHR NOT AND DUP2 SSTORE JUMPDEST POP POP POP POP POP PUSH1 0x1 SWAP1 DUP2 SHL ADD SWAP1 SSTORE POP JUMP JUMPDEST PUSH1 0x0 DUP4 MLOAD PUSH2 0x2224 DUP2 DUP5 PUSH1 0x20 DUP9 ADD PUSH2 0x1D21 JUMP JUMPDEST DUP4 MLOAD SWAP1 DUP4 ADD SWAP1 PUSH2 0x2238 DUP2 DUP4 PUSH1 0x20 DUP9 ADD PUSH2 0x1D21 JUMP JUMPDEST ADD SWAP5 SWAP4 POP POP POP POP JUMP JUMPDEST PUSH1 0x1 PUSH1 0x1 PUSH1 0xA0 SHL SUB DUP6 DUP2 AND DUP3 MSTORE DUP5 AND PUSH1 0x20 DUP3 ADD MSTORE PUSH1 0x40 DUP2 ADD DUP4 SWAP1 MSTORE PUSH1 0x80 PUSH1 0x60 DUP3 ADD DUP2 SWAP1 MSTORE PUSH1 0x0 SWAP1 PUSH2 0x2274 SWAP1 DUP4 ADD DUP5 PUSH2 0x1D45 JUMP JUMPDEST SWAP7 SWAP6 POP POP POP POP POP POP JUMP JUMPDEST PUSH1 0x0 PUSH1 0x20 DUP3 DUP5 SUB SLT ISZERO PUSH2 0x2290 JUMPI PUSH1 0x0 DUP1 REVERT JUMPDEST DUP2 MLOAD PUSH2 0x11EB DUP2 PUSH2 0x1CCC JUMP JUMPDEST PUSH4 0x4E487B71 PUSH1 0xE0 SHL PUSH1 0x0 MSTORE PUSH1 0x31 PUSH1 0x4 MSTORE PUSH1 0x24 PUSH1 0x0 REVERT INVALID LOG2 PUSH5 0x6970667358 0x22 SLT KECCAK256 0xB0 LOG4 CALLDATALOAD PUSH0 SMOD DUP3 0x2E 0x2B TIMESTAMP 0x2A PC 0xC9 DUP9 0xE1 0x4E SWAP14 PUSH24 0xE96250B41B031F6A1CD0AC87136DB664736F6C6343000814 STOP CALLER "},"methodIdentifiers":{"COMMUNITY_SHARD_SUPPLY()":"1b9ebc70","MAX_FULL_SUPPLY()":"02a18c98","MAX_SHARD_SUPPLY()":"efb46a67","REFERRAL_SHARD_SUPPLY()":"c7c70952","TOTAL_SHARD_SUPPLY()":"978b69f4","approve(address,uint256)":"095ea7b3","balanceOf(address)":"70a08231","communityShardsMinted()":"2517b8fb","fullMinted()":"3ab53d34","fullPrice()":"edd634b8","getApproved(uint256)":"081812fc","getSupplyInfo()":"20edeaf3","isApprovedForAll(address,address)":"e985e9c5","isCommunityShard(uint256)":"63e20c54","isReferralShard(uint256)":"e01f803b","mintCommunityShard(address)":"9caff999","mintFull(uint256)":"a6b5b10d","mintReferralShard(address)":"2b58b758","mintShard(uint256)":"40f52d09","name()":"06fdde03","openReferralShardsForSale()":"03e4795d","owner()":"8da5cb5b","ownerOf(uint256)":"6352211e","passType(uint256)":"55e732da","referralShardsCanBeSold()":"f8adb8db","referralShardsMinted()":"f9cc4792","renounceOwnership()":"715018a6","safeTransferFrom(address,address,uint256)":"42842e0e","safeTransferFrom(address,address,uint256,bytes)":"b88d4fde","saleIsActive()":"eb8d2444","setApprovalForAll(address,bool)":"a22cb465","setBaseURI(string)":"55f804b3","setPrices(uint256,uint256)":"05fefda7","shardMinted()":"03b81c96","shardPrice()":"ff7c9ac5","supportsInterface(bytes4)":"01ffc9a7","symbol()":"95d89b41","toggleSaleState()":"daaeec86","tokenByIndex(uint256)":"4f6ccce7","tokenOfOwnerByIndex(address,uint256)":"2f745c59","tokenURI(uint256)":"c87b56dd","totalSupply()":"18160ddd","transferFrom(address,address,uint256)":"23b872dd","transferOwnership(address)":"f2fde38b","withdraw()":"3ccfd60b"}}}}}